{
  "contractName": "BonsaiBank",
  "abi": [
    {
      "inputs": [
        {
          "internalType": "address",
          "name": "_botanist",
          "type": "address"
        }
      ],
      "stateMutability": "nonpayable",
      "type": "constructor"
    },
    {
      "anonymous": false,
      "inputs": [
        {
          "indexed": true,
          "internalType": "address",
          "name": "owner",
          "type": "address"
        },
        {
          "indexed": true,
          "internalType": "address",
          "name": "approved",
          "type": "address"
        },
        {
          "indexed": true,
          "internalType": "uint256",
          "name": "tokenId",
          "type": "uint256"
        }
      ],
      "name": "Approval",
      "type": "event"
    },
    {
      "anonymous": false,
      "inputs": [
        {
          "indexed": true,
          "internalType": "address",
          "name": "owner",
          "type": "address"
        },
        {
          "indexed": true,
          "internalType": "address",
          "name": "operator",
          "type": "address"
        },
        {
          "indexed": false,
          "internalType": "bool",
          "name": "approved",
          "type": "bool"
        }
      ],
      "name": "ApprovalForAll",
      "type": "event"
    },
    {
      "anonymous": false,
      "inputs": [
        {
          "indexed": true,
          "internalType": "address",
          "name": "from",
          "type": "address"
        },
        {
          "indexed": true,
          "internalType": "address",
          "name": "to",
          "type": "address"
        },
        {
          "indexed": true,
          "internalType": "uint256",
          "name": "tokenId",
          "type": "uint256"
        }
      ],
      "name": "Transfer",
      "type": "event"
    },
    {
      "inputs": [
        {
          "internalType": "address",
          "name": "to",
          "type": "address"
        },
        {
          "internalType": "uint256",
          "name": "tokenId",
          "type": "uint256"
        }
      ],
      "name": "approve",
      "outputs": [],
      "stateMutability": "nonpayable",
      "type": "function"
    },
    {
      "inputs": [
        {
          "internalType": "address",
          "name": "owner",
          "type": "address"
        }
      ],
      "name": "balanceOf",
      "outputs": [
        {
          "internalType": "uint256",
          "name": "",
          "type": "uint256"
        }
      ],
      "stateMutability": "view",
      "type": "function",
      "constant": true
    },
    {
      "inputs": [
        {
          "internalType": "uint256",
          "name": "tokenId",
          "type": "uint256"
        }
      ],
      "name": "getApproved",
      "outputs": [
        {
          "internalType": "address",
          "name": "",
          "type": "address"
        }
      ],
      "stateMutability": "view",
      "type": "function",
      "constant": true
    },
    {
      "inputs": [
        {
          "internalType": "address",
          "name": "owner",
          "type": "address"
        },
        {
          "internalType": "address",
          "name": "operator",
          "type": "address"
        }
      ],
      "name": "isApprovedForAll",
      "outputs": [
        {
          "internalType": "bool",
          "name": "",
          "type": "bool"
        }
      ],
      "stateMutability": "view",
      "type": "function",
      "constant": true
    },
    {
      "inputs": [],
      "name": "name",
      "outputs": [
        {
          "internalType": "string",
          "name": "",
          "type": "string"
        }
      ],
      "stateMutability": "view",
      "type": "function",
      "constant": true
    },
    {
      "inputs": [
        {
          "internalType": "uint256",
          "name": "tokenId",
          "type": "uint256"
        }
      ],
      "name": "ownerOf",
      "outputs": [
        {
          "internalType": "address",
          "name": "",
          "type": "address"
        }
      ],
      "stateMutability": "view",
      "type": "function",
      "constant": true
    },
    {
      "inputs": [
        {
          "internalType": "address",
          "name": "from",
          "type": "address"
        },
        {
          "internalType": "address",
          "name": "to",
          "type": "address"
        },
        {
          "internalType": "uint256",
          "name": "tokenId",
          "type": "uint256"
        }
      ],
      "name": "safeTransferFrom",
      "outputs": [],
      "stateMutability": "nonpayable",
      "type": "function"
    },
    {
      "inputs": [
        {
          "internalType": "address",
          "name": "from",
          "type": "address"
        },
        {
          "internalType": "address",
          "name": "to",
          "type": "address"
        },
        {
          "internalType": "uint256",
          "name": "tokenId",
          "type": "uint256"
        },
        {
          "internalType": "bytes",
          "name": "_data",
          "type": "bytes"
        }
      ],
      "name": "safeTransferFrom",
      "outputs": [],
      "stateMutability": "nonpayable",
      "type": "function"
    },
    {
      "inputs": [
        {
          "internalType": "address",
          "name": "operator",
          "type": "address"
        },
        {
          "internalType": "bool",
          "name": "approved",
          "type": "bool"
        }
      ],
      "name": "setApprovalForAll",
      "outputs": [],
      "stateMutability": "nonpayable",
      "type": "function"
    },
    {
      "inputs": [
        {
          "internalType": "bytes4",
          "name": "interfaceId",
          "type": "bytes4"
        }
      ],
      "name": "supportsInterface",
      "outputs": [
        {
          "internalType": "bool",
          "name": "",
          "type": "bool"
        }
      ],
      "stateMutability": "view",
      "type": "function",
      "constant": true
    },
    {
      "inputs": [],
      "name": "symbol",
      "outputs": [
        {
          "internalType": "string",
          "name": "",
          "type": "string"
        }
      ],
      "stateMutability": "view",
      "type": "function",
      "constant": true
    },
    {
      "inputs": [
        {
          "internalType": "uint256",
          "name": "tokenId",
          "type": "uint256"
        }
      ],
      "name": "tokenURI",
      "outputs": [
        {
          "internalType": "string",
          "name": "",
          "type": "string"
        }
      ],
      "stateMutability": "view",
      "type": "function",
      "constant": true
    },
    {
      "inputs": [
        {
          "internalType": "address",
          "name": "from",
          "type": "address"
        },
        {
          "internalType": "address",
          "name": "to",
          "type": "address"
        },
        {
          "internalType": "uint256",
          "name": "tokenId",
          "type": "uint256"
        }
      ],
      "name": "transferFrom",
      "outputs": [],
      "stateMutability": "nonpayable",
      "type": "function"
    },
    {
      "inputs": [],
      "name": "getBotanist",
      "outputs": [
        {
          "internalType": "address",
          "name": "",
          "type": "address"
        }
      ],
      "stateMutability": "view",
      "type": "function",
      "constant": true
    },
    {
      "inputs": [],
      "name": "getWaterToken",
      "outputs": [
        {
          "internalType": "address",
          "name": "",
          "type": "address"
        }
      ],
      "stateMutability": "view",
      "type": "function",
      "constant": true
    },
    {
      "inputs": [],
      "name": "getFertToken",
      "outputs": [
        {
          "internalType": "address",
          "name": "",
          "type": "address"
        }
      ],
      "stateMutability": "view",
      "type": "function",
      "constant": true
    },
    {
      "inputs": [],
      "name": "getWaterAmount",
      "outputs": [
        {
          "internalType": "uint256",
          "name": "",
          "type": "uint256"
        }
      ],
      "stateMutability": "view",
      "type": "function",
      "constant": true
    },
    {
      "inputs": [],
      "name": "getFertAmount",
      "outputs": [
        {
          "internalType": "uint256",
          "name": "",
          "type": "uint256"
        }
      ],
      "stateMutability": "view",
      "type": "function",
      "constant": true
    },
    {
      "inputs": [],
      "name": "getWaterRate",
      "outputs": [
        {
          "internalType": "uint256",
          "name": "",
          "type": "uint256"
        }
      ],
      "stateMutability": "view",
      "type": "function",
      "constant": true
    },
    {
      "inputs": [],
      "name": "getFertRate",
      "outputs": [
        {
          "internalType": "uint256",
          "name": "",
          "type": "uint256"
        }
      ],
      "stateMutability": "view",
      "type": "function",
      "constant": true
    },
    {
      "inputs": [
        {
          "internalType": "uint256",
          "name": "bonsaiId",
          "type": "uint256"
        }
      ],
      "name": "lastWatered",
      "outputs": [
        {
          "internalType": "uint256",
          "name": "",
          "type": "uint256"
        }
      ],
      "stateMutability": "view",
      "type": "function",
      "constant": true
    },
    {
      "inputs": [
        {
          "internalType": "uint256",
          "name": "bonsaiId",
          "type": "uint256"
        }
      ],
      "name": "consecutiveWaterings",
      "outputs": [
        {
          "internalType": "uint256",
          "name": "",
          "type": "uint256"
        }
      ],
      "stateMutability": "view",
      "type": "function",
      "constant": true
    },
    {
      "inputs": [
        {
          "internalType": "uint256",
          "name": "bonsaiId",
          "type": "uint256"
        }
      ],
      "name": "waterBalance",
      "outputs": [
        {
          "internalType": "uint256",
          "name": "",
          "type": "uint256"
        }
      ],
      "stateMutability": "view",
      "type": "function",
      "constant": true
    },
    {
      "inputs": [
        {
          "internalType": "uint256",
          "name": "bonsaiId",
          "type": "uint256"
        }
      ],
      "name": "lastFertilized",
      "outputs": [
        {
          "internalType": "uint256",
          "name": "",
          "type": "uint256"
        }
      ],
      "stateMutability": "view",
      "type": "function",
      "constant": true
    },
    {
      "inputs": [
        {
          "internalType": "uint256",
          "name": "bonsaiId",
          "type": "uint256"
        }
      ],
      "name": "consecutiveFertilizings",
      "outputs": [
        {
          "internalType": "uint256",
          "name": "",
          "type": "uint256"
        }
      ],
      "stateMutability": "view",
      "type": "function",
      "constant": true
    },
    {
      "inputs": [
        {
          "internalType": "uint256",
          "name": "bonsaiId",
          "type": "uint256"
        }
      ],
      "name": "fertilizerBalance",
      "outputs": [
        {
          "internalType": "uint256",
          "name": "",
          "type": "uint256"
        }
      ],
      "stateMutability": "view",
      "type": "function",
      "constant": true
    },
    {
      "inputs": [
        {
          "internalType": "uint256",
          "name": "bonsaiId",
          "type": "uint256"
        }
      ],
      "name": "lifeStage",
      "outputs": [
        {
          "internalType": "uint256",
          "name": "",
          "type": "uint256"
        }
      ],
      "stateMutability": "view",
      "type": "function",
      "constant": true
    },
    {
      "inputs": [
        {
          "internalType": "uint256",
          "name": "bonsaiId",
          "type": "uint256"
        }
      ],
      "name": "exists",
      "outputs": [
        {
          "internalType": "bool",
          "name": "",
          "type": "bool"
        }
      ],
      "stateMutability": "view",
      "type": "function",
      "constant": true
    },
    {
      "inputs": [
        {
          "internalType": "address",
          "name": "_botanist",
          "type": "address"
        }
      ],
      "name": "setBotanist",
      "outputs": [],
      "stateMutability": "nonpayable",
      "type": "function"
    },
    {
      "inputs": [
        {
          "internalType": "address",
          "name": "_waterToken",
          "type": "address"
        }
      ],
      "name": "setWaterToken",
      "outputs": [],
      "stateMutability": "nonpayable",
      "type": "function"
    },
    {
      "inputs": [
        {
          "internalType": "address",
          "name": "_fertToken",
          "type": "address"
        }
      ],
      "name": "setFertToken",
      "outputs": [],
      "stateMutability": "nonpayable",
      "type": "function"
    },
    {
      "inputs": [
        {
          "internalType": "uint256",
          "name": "_waterAmount",
          "type": "uint256"
        }
      ],
      "name": "setWaterAmount",
      "outputs": [],
      "stateMutability": "nonpayable",
      "type": "function"
    },
    {
      "inputs": [
        {
          "internalType": "uint256",
          "name": "_fertAmount",
          "type": "uint256"
        }
      ],
      "name": "setFertAmount",
      "outputs": [],
      "stateMutability": "nonpayable",
      "type": "function"
    },
    {
      "inputs": [
        {
          "internalType": "uint256",
          "name": "_waterRate",
          "type": "uint256"
        }
      ],
      "name": "setWaterRate",
      "outputs": [],
      "stateMutability": "nonpayable",
      "type": "function"
    },
    {
      "inputs": [
        {
          "internalType": "uint256",
          "name": "_fertRate",
          "type": "uint256"
        }
      ],
      "name": "setFertRate",
      "outputs": [],
      "stateMutability": "nonpayable",
      "type": "function"
    },
    {
      "inputs": [
        {
          "internalType": "uint256",
          "name": "_wateringsToGrow",
          "type": "uint256"
        }
      ],
      "name": "setWateringsToGrow",
      "outputs": [],
      "stateMutability": "nonpayable",
      "type": "function"
    },
    {
      "inputs": [
        {
          "internalType": "uint256",
          "name": "bonsaiId",
          "type": "uint256"
        },
        {
          "internalType": "uint256",
          "name": "_lifeStage",
          "type": "uint256"
        }
      ],
      "name": "setLifeStage",
      "outputs": [],
      "stateMutability": "nonpayable",
      "type": "function"
    },
    {
      "inputs": [
        {
          "internalType": "address",
          "name": "caretaker",
          "type": "address"
        },
        {
          "internalType": "string",
          "name": "bonsaiURI",
          "type": "string"
        }
      ],
      "name": "mint",
      "outputs": [
        {
          "internalType": "uint256",
          "name": "bonsaiId",
          "type": "uint256"
        }
      ],
      "stateMutability": "nonpayable",
      "type": "function"
    },
    {
      "inputs": [
        {
          "internalType": "uint256",
          "name": "_bonsaiId",
          "type": "uint256"
        }
      ],
      "name": "water",
      "outputs": [],
      "stateMutability": "nonpayable",
      "type": "function"
    },
    {
      "inputs": [
        {
          "internalType": "uint256",
          "name": "_bonsaiId",
          "type": "uint256"
        }
      ],
      "name": "fertilize",
      "outputs": [],
      "stateMutability": "nonpayable",
      "type": "function"
    },
    {
      "inputs": [
        {
          "internalType": "uint256",
          "name": "_bonsaiId",
          "type": "uint256"
        },
        {
          "internalType": "string",
          "name": "_bonsaiURI",
          "type": "string"
        }
      ],
      "name": "grow",
      "outputs": [],
      "stateMutability": "nonpayable",
      "type": "function"
    },
    {
      "inputs": [
        {
          "internalType": "uint256",
          "name": "_bonsaiId",
          "type": "uint256"
        },
        {
          "internalType": "string",
          "name": "_bonsaiURI",
          "type": "string"
        }
      ],
      "name": "wilt",
      "outputs": [],
      "stateMutability": "nonpayable",
      "type": "function"
    },
    {
      "inputs": [
        {
          "internalType": "uint256",
          "name": "_bonsaiId",
          "type": "uint256"
        }
      ],
      "name": "destroy",
      "outputs": [],
      "stateMutability": "nonpayable",
      "type": "function"
    }
  ],
  "bytecode": "0x60806040523480156200001157600080fd5b506040516200531d3803806200531d8339818101604052810190620000379190620001e6565b6040518060400160405280600b81526020017f426f6e7361692042616e6b0000000000000000000000000000000000000000008152506040518060400160405280600481526020017f424e5a49000000000000000000000000000000000000000000000000000000008152508160009080519060200190620000bb9291906200011f565b508060019080519060200190620000d49291906200011f565b50505080600960006101000a81548173ffffffffffffffffffffffffffffffffffffffff021916908373ffffffffffffffffffffffffffffffffffffffff16021790555050620002c5565b8280546200012d9062000246565b90600052602060002090601f0160209004810192826200015157600085556200019d565b82601f106200016c57805160ff19168380011785556200019d565b828001600101855582156200019d579182015b828111156200019c5782518255916020019190600101906200017f565b5b509050620001ac9190620001b0565b5090565b5b80821115620001cb576000816000905550600101620001b1565b5090565b600081519050620001e081620002ab565b92915050565b600060208284031215620001f957600080fd5b60006200020984828501620001cf565b91505092915050565b60006200021f8262000226565b9050919050565b600073ffffffffffffffffffffffffffffffffffffffff82169050919050565b600060028204905060018216806200025f57607f821691505b602082108114156200027657620002756200027c565b5b50919050565b7f4e487b7100000000000000000000000000000000000000000000000000000000600052602260045260246000fd5b620002b68162000212565b8114620002c257600080fd5b50565b61504880620002d56000396000f3fe608060405234801561001057600080fd5b50600436106102695760003560e01c806391eb40f511610151578063c29e33cb116100c3578063d0def52111610087578063d0def5211461078e578063d6a82b99146107be578063db125067146107da578063e4ea4d02146107f8578063e54bb83914610814578063e985e9c51461083057610269565b8063c29e33cb146106ea578063c4308df114610708578063c87b56dd14610726578063cd1b3db014610756578063ce9495a81461077257610269565b80639afe7e5d116101155780639afe7e5d1461061a5780639d1187701461064a578063a22cb46514610666578063a67e751214610682578063a7eec44b146106b2578063b88d4fde146106ce57610269565b806391eb40f51461057657806395d89b4114610592578063963159a7146105b0578063972d2de9146105ce57806398be2eec146105ea57610269565b80634f558e79116101ea57806366c527ed116101ae57806366c527ed146104a257806370a08231146104c05780637d24d3ea146104f05780637d6854a71461050e5780638b12ac361461052a5780638e9ecf651461055a57610269565b80634f558e79146103c6578063600a1670146103f65780636352211e1461042657806363f92e4e146104565780636641fb6a1461047257610269565b806323b872dd1161023157806323b872dd1461032657806331a68c721461034257806331d964c01461035e5780633899f93d1461037a57806342842e0e146103aa57610269565b806301ffc9a71461026e57806306fdde031461029e578063081812fc146102bc578063095ea7b3146102ec5780631fe5786b14610308575b600080fd5b61028860048036038101906102839190613c72565b610860565b60405161029591906147e6565b60405180910390f35b6102a6610942565b6040516102b39190614801565b60405180910390f35b6102d660048036038101906102d19190613cc4565b6109d4565b6040516102e3919061471f565b60405180910390f35b61030660048036038101906103019190613c0d565b610a59565b005b610310610b71565b60405161031d9190614b83565b60405180910390f35b610340600480360381019061033b9190613ab3565b610b7b565b005b61035c60048036038101906103579190613a4e565b610bdb565b005b61037860048036038101906103739190613ced565b610c79565b005b610394600480360381019061038f9190613cc4565b61117b565b6040516103a19190614b83565b60405180910390f35b6103c460048036038101906103bf9190613ab3565b6111dc565b005b6103e060048036038101906103db9190613cc4565b6111fc565b6040516103ed91906147e6565b60405180910390f35b610410600480360381019061040b9190613cc4565b61120e565b60405161041d9190614b83565b60405180910390f35b610440600480360381019061043b9190613cc4565b61126f565b60405161044d919061471f565b60405180910390f35b610470600480360381019061046b9190613a4e565b611321565b005b61048c60048036038101906104879190613cc4565b6113bf565b6040516104999190614b83565b60405180910390f35b6104aa611420565b6040516104b7919061471f565b60405180910390f35b6104da60048036038101906104d59190613a4e565b61144a565b6040516104e79190614b83565b60405180910390f35b6104f8611502565b6040516105059190614b83565b60405180910390f35b61052860048036038101906105239190613cc4565b61150c565b005b610544600480360381019061053f9190613cc4565b611570565b6040516105519190614b83565b60405180910390f35b610574600480360381019061056f9190613cc4565b6115d1565b005b610590600480360381019061058b9190613ced565b611635565b005b61059a611805565b6040516105a79190614801565b60405180910390f35b6105b8611897565b6040516105c59190614b83565b60405180910390f35b6105e860048036038101906105e39190613cc4565b6118a1565b005b61060460048036038101906105ff9190613cc4565b611905565b6040516106119190614b83565b60405180910390f35b610634600480360381019061062f9190613cc4565b611966565b6040516106419190614b83565b60405180910390f35b610664600480360381019061065f9190613cc4565b6119c7565b005b610680600480360381019061067b9190613b7d565b611d8d565b005b61069c60048036038101906106979190613cc4565b611f0e565b6040516106a99190614b83565b60405180910390f35b6106cc60048036038101906106c79190613cc4565b611f6f565b005b6106e860048036038101906106e39190613b02565b61224f565b005b6106f26122b1565b6040516106ff919061471f565b60405180910390f35b6107106122db565b60405161071d919061471f565b60405180910390f35b610740600480360381019061073b9190613cc4565b612305565b60405161074d9190614801565b60405180910390f35b610770600480360381019061076b9190613cc4565b612457565b005b61078c60048036038101906107879190613a4e565b612737565b005b6107a860048036038101906107a39190613bb9565b6127d5565b6040516107b59190614b83565b60405180910390f35b6107d860048036038101906107d39190613d41565b61291a565b005b6107e261297a565b6040516107ef9190614b83565b60405180910390f35b610812600480360381019061080d9190613cc4565b612984565b005b61082e60048036038101906108299190613cc4565b6129e8565b005b61084a60048036038101906108459190613a77565b612a4c565b60405161085791906147e6565b60405180910390f35b60007f80ac58cd000000000000000000000000000000000000000000000000000000007bffffffffffffffffffffffffffffffffffffffffffffffffffffffff1916827bffffffffffffffffffffffffffffffffffffffffffffffffffffffff1916148061092b57507f5b5e139f000000000000000000000000000000000000000000000000000000007bffffffffffffffffffffffffffffffffffffffffffffffffffffffff1916827bffffffffffffffffffffffffffffffffffffffffffffffffffffffff1916145b8061093b575061093a82612ae0565b5b9050919050565b60606000805461095190614e3d565b80601f016020809104026020016040519081016040528092919081815260200182805461097d90614e3d565b80156109ca5780601f1061099f576101008083540402835291602001916109ca565b820191906000526020600020905b8154815290600101906020018083116109ad57829003601f168201915b5050505050905090565b60006109df82612b4a565b610a1e576040517f08c379a0000000000000000000000000000000000000000000000000000000008152600401610a1590614a63565b60405180910390fd5b6004600083815260200190815260200160002060009054906101000a900473ffffffffffffffffffffffffffffffffffffffff169050919050565b6000610a648261126f565b90508073ffffffffffffffffffffffffffffffffffffffff168373ffffffffffffffffffffffffffffffffffffffff161415610ad5576040517f08c379a0000000000000000000000000000000000000000000000000000000008152600401610acc90614ac3565b60405180910390fd5b8073ffffffffffffffffffffffffffffffffffffffff16610af4612bb6565b73ffffffffffffffffffffffffffffffffffffffff161480610b235750610b2281610b1d612bb6565b612a4c565b5b610b62576040517f08c379a0000000000000000000000000000000000000000000000000000000008152600401610b5990614943565b60405180910390fd5b610b6c8383612bbe565b505050565b6000600c54905090565b610b8c610b86612bb6565b82612c77565b610bcb576040517f08c379a0000000000000000000000000000000000000000000000000000000008152600401610bc290614ae3565b60405180910390fd5b610bd6838383612d55565b505050565b600960009054906101000a900473ffffffffffffffffffffffffffffffffffffffff1673ffffffffffffffffffffffffffffffffffffffff163373ffffffffffffffffffffffffffffffffffffffff1614610c3557600080fd5b80600960006101000a81548173ffffffffffffffffffffffffffffffffffffffff021916908373ffffffffffffffffffffffffffffffffffffffff16021790555050565b600960009054906101000a900473ffffffffffffffffffffffffffffffffffffffff1673ffffffffffffffffffffffffffffffffffffffff163373ffffffffffffffffffffffffffffffffffffffff1614610cd357600080fd5b610ce96002600e54612fb190919063ffffffff16565b42610cf49190614d53565b6008600184610d039190614d53565b81548110610d3a577f4e487b7100000000000000000000000000000000000000000000000000000000600052603260045260246000fd5b9060005260206000209060070201600001541115610d8d576040517f08c379a0000000000000000000000000000000000000000000000000000000008152600401610d84906149e3565b60405180910390fd5b6000610e0d6064610dff605f6008600188610da89190614d53565b81548110610ddf577f4e487b7100000000000000000000000000000000000000000000000000000000600052603260045260246000fd5b906000526020600020906007020160020154612fb190919063ffffffff16565b612fc790919063ffffffff16565b90506000610e8f6064610e81605f6008600189610e2a9190614d53565b81548110610e61577f4e487b7100000000000000000000000000000000000000000000000000000000600052603260045260246000fd5b906000526020600020906007020160050154612fb190919063ffffffff16565b612fc790919063ffffffff16565b9050600a60009054906101000a900473ffffffffffffffffffffffffffffffffffffffff1673ffffffffffffffffffffffffffffffffffffffff1663a9059cbb600960009054906101000a900473ffffffffffffffffffffffffffffffffffffffff16846040518363ffffffff1660e01b8152600401610f109291906147bd565b602060405180830381600087803b158015610f2a57600080fd5b505af1158015610f3e573d6000803e3d6000fd5b505050506040513d601f19601f82011682018060405250810190610f629190613c49565b610fa1576040517f08c379a0000000000000000000000000000000000000000000000000000000008152600401610f9890614b03565b60405180910390fd5b600b60009054906101000a900473ffffffffffffffffffffffffffffffffffffffff1673ffffffffffffffffffffffffffffffffffffffff1663a9059cbb600960009054906101000a900473ffffffffffffffffffffffffffffffffffffffff16836040518363ffffffff1660e01b81526004016110209291906147bd565b602060405180830381600087803b15801561103a57600080fd5b505af115801561104e573d6000803e3d6000fd5b505050506040513d601f19601f820116820180604052508101906110729190613c49565b6110b1576040517f08c379a00000000000000000000000000000000000000000000000000000000081526004016110a890614a03565b60405180910390fd5b6110bb8484612fdd565b600060086001866110cc9190614d53565b81548110611103577f4e487b7100000000000000000000000000000000000000000000000000000000600052603260045260246000fd5b906000526020600020906007020160010181905550600060086001866111299190614d53565b81548110611160577f4e487b7100000000000000000000000000000000000000000000000000000000600052603260045260246000fd5b90600052602060002090600702016004018190555050505050565b6000600860018361118c9190614d53565b815481106111c3577f4e487b7100000000000000000000000000000000000000000000000000000000600052603260045260246000fd5b9060005260206000209060070201600401549050919050565b6111f78383836040518060200160405280600081525061224f565b505050565b600061120782612b4a565b9050919050565b6000600860018361121f9190614d53565b81548110611256577f4e487b7100000000000000000000000000000000000000000000000000000000600052603260045260246000fd5b9060005260206000209060070201600001549050919050565b6000806002600084815260200190815260200160002060009054906101000a900473ffffffffffffffffffffffffffffffffffffffff169050600073ffffffffffffffffffffffffffffffffffffffff168173ffffffffffffffffffffffffffffffffffffffff161415611318576040517f08c379a000000000000000000000000000000000000000000000000000000000815260040161130f90614983565b60405180910390fd5b80915050919050565b600960009054906101000a900473ffffffffffffffffffffffffffffffffffffffff1673ffffffffffffffffffffffffffffffffffffffff163373ffffffffffffffffffffffffffffffffffffffff161461137b57600080fd5b80600b60006101000a81548173ffffffffffffffffffffffffffffffffffffffff021916908373ffffffffffffffffffffffffffffffffffffffff16021790555050565b600060086001836113d09190614d53565b81548110611407577f4e487b7100000000000000000000000000000000000000000000000000000000600052603260045260246000fd5b9060005260206000209060070201600101549050919050565b6000600960009054906101000a900473ffffffffffffffffffffffffffffffffffffffff16905090565b60008073ffffffffffffffffffffffffffffffffffffffff168273ffffffffffffffffffffffffffffffffffffffff1614156114bb576040517f08c379a00000000000000000000000000000000000000000000000000000000081526004016114b290614963565b60405180910390fd5b600360008373ffffffffffffffffffffffffffffffffffffffff1673ffffffffffffffffffffffffffffffffffffffff168152602001908152602001600020549050919050565b6000600e54905090565b600960009054906101000a900473ffffffffffffffffffffffffffffffffffffffff1673ffffffffffffffffffffffffffffffffffffffff163373ffffffffffffffffffffffffffffffffffffffff161461156657600080fd5b80600f8190555050565b600060086001836115819190614d53565b815481106115b8577f4e487b7100000000000000000000000000000000000000000000000000000000600052603260045260246000fd5b9060005260206000209060070201600301549050919050565b600960009054906101000a900473ffffffffffffffffffffffffffffffffffffffff1673ffffffffffffffffffffffffffffffffffffffff163373ffffffffffffffffffffffffffffffffffffffff161461162b57600080fd5b80600d8190555050565b600960009054906101000a900473ffffffffffffffffffffffffffffffffffffffff1673ffffffffffffffffffffffffffffffffffffffff163373ffffffffffffffffffffffffffffffffffffffff161461168f57600080fd5b60105460086001846116a19190614d53565b815481106116d8577f4e487b7100000000000000000000000000000000000000000000000000000000600052603260045260246000fd5b906000526020600020906007020160010154101561172b576040517f08c379a0000000000000000000000000000000000000000000000000000000008152600401611722906148a3565b60405180910390fd5b6117358282612fdd565b600160086001846117469190614d53565b8154811061177d577f4e487b7100000000000000000000000000000000000000000000000000000000600052603260045260246000fd5b9060005260206000209060070201600601600082825461179d9190614c72565b92505081905550600060086001846117b59190614d53565b815481106117ec577f4e487b7100000000000000000000000000000000000000000000000000000000600052603260045260246000fd5b9060005260206000209060070201600101819055505050565b60606001805461181490614e3d565b80601f016020809104026020016040519081016040528092919081815260200182805461184090614e3d565b801561188d5780601f106118625761010080835404028352916020019161188d565b820191906000526020600020905b81548152906001019060200180831161187057829003601f168201915b5050505050905090565b6000600d54905090565b600960009054906101000a900473ffffffffffffffffffffffffffffffffffffffff1673ffffffffffffffffffffffffffffffffffffffff163373ffffffffffffffffffffffffffffffffffffffff16146118fb57600080fd5b80600e8190555050565b600060086001836119169190614d53565b8154811061194d577f4e487b7100000000000000000000000000000000000000000000000000000000600052603260045260246000fd5b9060005260206000209060070201600201549050919050565b600060086001836119779190614d53565b815481106119ae577f4e487b7100000000000000000000000000000000000000000000000000000000600052603260045260246000fd5b9060005260206000209060070201600601549050919050565b3373ffffffffffffffffffffffffffffffffffffffff166119e78261126f565b73ffffffffffffffffffffffffffffffffffffffff1614611a3d576040517f08c379a0000000000000000000000000000000000000000000000000000000008152600401611a34906149a3565b60405180910390fd5b600a60009054906101000a900473ffffffffffffffffffffffffffffffffffffffff1673ffffffffffffffffffffffffffffffffffffffff1663a9059cbb336008600185611a8b9190614d53565b81548110611ac2577f4e487b7100000000000000000000000000000000000000000000000000000000600052603260045260246000fd5b9060005260206000209060070201600201546040518363ffffffff1660e01b8152600401611af19291906147bd565b602060405180830381600087803b158015611b0b57600080fd5b505af1158015611b1f573d6000803e3d6000fd5b505050506040513d601f19601f82011682018060405250810190611b439190613c49565b611b82576040517f08c379a0000000000000000000000000000000000000000000000000000000008152600401611b7990614823565b60405180910390fd5b600b60009054906101000a900473ffffffffffffffffffffffffffffffffffffffff1673ffffffffffffffffffffffffffffffffffffffff1663a9059cbb336008600185611bd09190614d53565b81548110611c07577f4e487b7100000000000000000000000000000000000000000000000000000000600052603260045260246000fd5b9060005260206000209060070201600501546040518363ffffffff1660e01b8152600401611c369291906147bd565b602060405180830381600087803b158015611c5057600080fd5b505af1158015611c64573d6000803e3d6000fd5b505050506040513d601f19601f82011682018060405250810190611c889190613c49565b611cc7576040517f08c379a0000000000000000000000000000000000000000000000000000000008152600401611cbe90614923565b60405180910390fd5b60006008600183611cd89190614d53565b81548110611d0f577f4e487b7100000000000000000000000000000000000000000000000000000000600052603260045260246000fd5b90600052602060002090600702016002018190555060006008600183611d359190614d53565b81548110611d6c577f4e487b7100000000000000000000000000000000000000000000000000000000600052603260045260246000fd5b906000526020600020906007020160050181905550611d8a81613051565b50565b611d95612bb6565b73ffffffffffffffffffffffffffffffffffffffff168273ffffffffffffffffffffffffffffffffffffffff161415611e03576040517f08c379a0000000000000000000000000000000000000000000000000000000008152600401611dfa906148e3565b60405180910390fd5b8060056000611e10612bb6565b73ffffffffffffffffffffffffffffffffffffffff1673ffffffffffffffffffffffffffffffffffffffff16815260200190815260200160002060008473ffffffffffffffffffffffffffffffffffffffff1673ffffffffffffffffffffffffffffffffffffffff16815260200190815260200160002060006101000a81548160ff0219169083151502179055508173ffffffffffffffffffffffffffffffffffffffff16611ebd612bb6565b73ffffffffffffffffffffffffffffffffffffffff167f17307eab39ab6107e8899845ad3d59bd9653f200f220920489ca2b5937696c3183604051611f0291906147e6565b60405180910390a35050565b60006008600183611f1f9190614d53565b81548110611f56577f4e487b7100000000000000000000000000000000000000000000000000000000600052603260045260246000fd5b9060005260206000209060070201600501549050919050565b600e5442611f7d9190614d53565b6008600183611f8c9190614d53565b81548110611fc3577f4e487b7100000000000000000000000000000000000000000000000000000000600052603260045260246000fd5b90600052602060002090600702016000015410612015576040517f08c379a000000000000000000000000000000000000000000000000000000000815260040161200c90614843565b60405180910390fd5b600a60009054906101000a900473ffffffffffffffffffffffffffffffffffffffff1673ffffffffffffffffffffffffffffffffffffffff166323b872dd333061205d610b71565b6040518463ffffffff1660e01b815260040161207b9392919061473a565b602060405180830381600087803b15801561209557600080fd5b505af11580156120a9573d6000803e3d6000fd5b505050506040513d601f19601f820116820180604052508101906120cd9190613c49565b61210c576040517f08c379a000000000000000000000000000000000000000000000000000000000815260040161210390614b23565b60405180910390fd5b42600860018361211c9190614d53565b81548110612153577f4e487b7100000000000000000000000000000000000000000000000000000000600052603260045260246000fd5b906000526020600020906007020160000181905550600160086001836121799190614d53565b815481106121b0577f4e487b7100000000000000000000000000000000000000000000000000000000600052603260045260246000fd5b906000526020600020906007020160010160008282546121d09190614c72565b925050819055506121df610b71565b60086001836121ee9190614d53565b81548110612225577f4e487b7100000000000000000000000000000000000000000000000000000000600052603260045260246000fd5b906000526020600020906007020160020160008282546122459190614c72565b9250508190555050565b61226061225a612bb6565b83612c77565b61229f576040517f08c379a000000000000000000000000000000000000000000000000000000000815260040161229690614ae3565b60405180910390fd5b6122ab848484846130a4565b50505050565b6000600a60009054906101000a900473ffffffffffffffffffffffffffffffffffffffff16905090565b6000600b60009054906101000a900473ffffffffffffffffffffffffffffffffffffffff16905090565b606061231082612b4a565b61234f576040517f08c379a000000000000000000000000000000000000000000000000000000000815260040161234690614a43565b60405180910390fd5b600060066000848152602001908152602001600020805461236f90614e3d565b80601f016020809104026020016040519081016040528092919081815260200182805461239b90614e3d565b80156123e85780601f106123bd576101008083540402835291602001916123e8565b820191906000526020600020905b8154815290600101906020018083116123cb57829003601f168201915b5050505050905060006123f9613100565b905060008151141561240f578192505050612452565b60008251111561244457808260405160200161242c9291906146fb565b60405160208183030381529060405292505050612452565b61244d84613117565b925050505b919050565b600f54426124659190614d53565b60086001836124749190614d53565b815481106124ab577f4e487b7100000000000000000000000000000000000000000000000000000000600052603260045260246000fd5b906000526020600020906007020160030154106124fd576040517f08c379a00000000000000000000000000000000000000000000000000000000081526004016124f490614b43565b60405180910390fd5b600b60009054906101000a900473ffffffffffffffffffffffffffffffffffffffff1673ffffffffffffffffffffffffffffffffffffffff166323b872dd3330612545611897565b6040518463ffffffff1660e01b81526004016125639392919061473a565b602060405180830381600087803b15801561257d57600080fd5b505af1158015612591573d6000803e3d6000fd5b505050506040513d601f19601f820116820180604052508101906125b59190613c49565b6125f4576040517f08c379a00000000000000000000000000000000000000000000000000000000081526004016125eb90614b63565b60405180910390fd5b4260086001836126049190614d53565b8154811061263b577f4e487b7100000000000000000000000000000000000000000000000000000000600052603260045260246000fd5b906000526020600020906007020160030181905550600160086001836126619190614d53565b81548110612698577f4e487b7100000000000000000000000000000000000000000000000000000000600052603260045260246000fd5b906000526020600020906007020160040160008282546126b89190614c72565b925050819055506126c7611897565b60086001836126d69190614d53565b8154811061270d577f4e487b7100000000000000000000000000000000000000000000000000000000600052603260045260246000fd5b9060005260206000209060070201600501600082825461272d9190614c72565b9250508190555050565b600960009054906101000a900473ffffffffffffffffffffffffffffffffffffffff1673ffffffffffffffffffffffffffffffffffffffff163373ffffffffffffffffffffffffffffffffffffffff161461279157600080fd5b80600a60006101000a81548173ffffffffffffffffffffffffffffffffffffffff021916908373ffffffffffffffffffffffffffffffffffffffff16021790555050565b6000600960009054906101000a900473ffffffffffffffffffffffffffffffffffffffff1673ffffffffffffffffffffffffffffffffffffffff163373ffffffffffffffffffffffffffffffffffffffff161461283157600080fd5b61283b60076131be565b600061284760076131d4565b905060006040518060e001604052806000815260200160008152602001600081526020016000815260200160008152602001600081526020016000815250905061289185836131e2565b61289b8285612fdd565b6008819080600181540180825580915050600190039060005260206000209060070201600090919091909150600082015181600001556020820151816001015560408201518160020155606082015181600301556080820151816004015560a0820151816005015560c082015181600601555050819250505092915050565b80600860018461292a9190614d53565b81548110612961577f4e487b7100000000000000000000000000000000000000000000000000000000600052603260045260246000fd5b9060005260206000209060070201600601819055505050565b6000600f54905090565b600960009054906101000a900473ffffffffffffffffffffffffffffffffffffffff1673ffffffffffffffffffffffffffffffffffffffff163373ffffffffffffffffffffffffffffffffffffffff16146129de57600080fd5b80600c8190555050565b600960009054906101000a900473ffffffffffffffffffffffffffffffffffffffff1673ffffffffffffffffffffffffffffffffffffffff163373ffffffffffffffffffffffffffffffffffffffff1614612a4257600080fd5b8060108190555050565b6000600560008473ffffffffffffffffffffffffffffffffffffffff1673ffffffffffffffffffffffffffffffffffffffff16815260200190815260200160002060008373ffffffffffffffffffffffffffffffffffffffff1673ffffffffffffffffffffffffffffffffffffffff16815260200190815260200160002060009054906101000a900460ff16905092915050565b60007f01ffc9a7000000000000000000000000000000000000000000000000000000007bffffffffffffffffffffffffffffffffffffffffffffffffffffffff1916827bffffffffffffffffffffffffffffffffffffffffffffffffffffffff1916149050919050565b60008073ffffffffffffffffffffffffffffffffffffffff166002600084815260200190815260200160002060009054906101000a900473ffffffffffffffffffffffffffffffffffffffff1673ffffffffffffffffffffffffffffffffffffffff1614159050919050565b600033905090565b816004600083815260200190815260200160002060006101000a81548173ffffffffffffffffffffffffffffffffffffffff021916908373ffffffffffffffffffffffffffffffffffffffff160217905550808273ffffffffffffffffffffffffffffffffffffffff16612c318361126f565b73ffffffffffffffffffffffffffffffffffffffff167f8c5be1e5ebec7d5bd14f71427d1e84f3dd0314c0f7b2291e5b200ac8c7c3b92560405160405180910390a45050565b6000612c8282612b4a565b612cc1576040517f08c379a0000000000000000000000000000000000000000000000000000000008152600401612cb890614903565b60405180910390fd5b6000612ccc8361126f565b90508073ffffffffffffffffffffffffffffffffffffffff168473ffffffffffffffffffffffffffffffffffffffff161480612d3b57508373ffffffffffffffffffffffffffffffffffffffff16612d23846109d4565b73ffffffffffffffffffffffffffffffffffffffff16145b80612d4c5750612d4b8185612a4c565b5b91505092915050565b8273ffffffffffffffffffffffffffffffffffffffff16612d758261126f565b73ffffffffffffffffffffffffffffffffffffffff1614612dcb576040517f08c379a0000000000000000000000000000000000000000000000000000000008152600401612dc290614a83565b60405180910390fd5b600073ffffffffffffffffffffffffffffffffffffffff168273ffffffffffffffffffffffffffffffffffffffff161415612e3b576040517f08c379a0000000000000000000000000000000000000000000000000000000008152600401612e32906148c3565b60405180910390fd5b612e468383836133b0565b612e51600082612bbe565b6001600360008573ffffffffffffffffffffffffffffffffffffffff1673ffffffffffffffffffffffffffffffffffffffff1681526020019081526020016000206000828254612ea19190614d53565b925050819055506001600360008473ffffffffffffffffffffffffffffffffffffffff1673ffffffffffffffffffffffffffffffffffffffff1681526020019081526020016000206000828254612ef89190614c72565b92505081905550816002600083815260200190815260200160002060006101000a81548173ffffffffffffffffffffffffffffffffffffffff021916908373ffffffffffffffffffffffffffffffffffffffff160217905550808273ffffffffffffffffffffffffffffffffffffffff168473ffffffffffffffffffffffffffffffffffffffff167fddf252ad1be2c89b69c2b068fc378daa952ba7f163c4a11628f55a4df523b3ef60405160405180910390a4505050565b60008183612fbf9190614cf9565b905092915050565b60008183612fd59190614cc8565b905092915050565b612fe682612b4a565b613025576040517f08c379a000000000000000000000000000000000000000000000000000000000815260040161301c906149c3565b60405180910390fd5b8060066000848152602001908152602001600020908051906020019061304c92919061381d565b505050565b61305a816133b5565b600060066000838152602001908152602001600020805461307a90614e3d565b9050146130a1576006600082815260200190815260200160002060006130a091906138a3565b5b50565b6130af848484612d55565b6130bb848484846134c6565b6130fa576040517f08c379a00000000000000000000000000000000000000000000000000000000081526004016130f190614863565b60405180910390fd5b50505050565b606060405180602001604052806000815250905090565b606061312282612b4a565b613161576040517f08c379a000000000000000000000000000000000000000000000000000000000815260040161315890614aa3565b60405180910390fd5b600061316b613100565b9050600081511161318b57604051806020016040528060008152506131b6565b806131958461365d565b6040516020016131a69291906146fb565b6040516020818303038152906040525b915050919050565b6001816000016000828254019250508190555050565b600081600001549050919050565b600073ffffffffffffffffffffffffffffffffffffffff168273ffffffffffffffffffffffffffffffffffffffff161415613252576040517f08c379a000000000000000000000000000000000000000000000000000000000815260040161324990614a23565b60405180910390fd5b61325b81612b4a565b1561329b576040517f08c379a000000000000000000000000000000000000000000000000000000000815260040161329290614883565b60405180910390fd5b6132a7600083836133b0565b6001600360008473ffffffffffffffffffffffffffffffffffffffff1673ffffffffffffffffffffffffffffffffffffffff16815260200190815260200160002060008282546132f79190614c72565b92505081905550816002600083815260200190815260200160002060006101000a81548173ffffffffffffffffffffffffffffffffffffffff021916908373ffffffffffffffffffffffffffffffffffffffff160217905550808273ffffffffffffffffffffffffffffffffffffffff16600073ffffffffffffffffffffffffffffffffffffffff167fddf252ad1be2c89b69c2b068fc378daa952ba7f163c4a11628f55a4df523b3ef60405160405180910390a45050565b505050565b60006133c08261126f565b90506133ce816000846133b0565b6133d9600083612bbe565b6001600360008373ffffffffffffffffffffffffffffffffffffffff1673ffffffffffffffffffffffffffffffffffffffff16815260200190815260200160002060008282546134299190614d53565b925050819055506002600083815260200190815260200160002060006101000a81549073ffffffffffffffffffffffffffffffffffffffff021916905581600073ffffffffffffffffffffffffffffffffffffffff168273ffffffffffffffffffffffffffffffffffffffff167fddf252ad1be2c89b69c2b068fc378daa952ba7f163c4a11628f55a4df523b3ef60405160405180910390a45050565b60006134e78473ffffffffffffffffffffffffffffffffffffffff1661380a565b15613650578373ffffffffffffffffffffffffffffffffffffffff1663150b7a02613510612bb6565b8786866040518563ffffffff1660e01b81526004016135329493929190614771565b602060405180830381600087803b15801561354c57600080fd5b505af192505050801561357d57506040513d601f19601f8201168201806040525081019061357a9190613c9b565b60015b613600573d80600081146135ad576040519150601f19603f3d011682016040523d82523d6000602084013e6135b2565b606091505b506000815114156135f8576040517f08c379a00000000000000000000000000000000000000000000000000000000081526004016135ef90614863565b60405180910390fd5b805181602001fd5b63150b7a0260e01b7bffffffffffffffffffffffffffffffffffffffffffffffffffffffff1916817bffffffffffffffffffffffffffffffffffffffffffffffffffffffff191614915050613655565b600190505b949350505050565b606060008214156136a5576040518060400160405280600181526020017f30000000000000000000000000000000000000000000000000000000000000008152509050613805565b600082905060005b600082146136d75780806136c090614e6f565b915050600a826136d09190614cc8565b91506136ad565b60008167ffffffffffffffff811115613719577f4e487b7100000000000000000000000000000000000000000000000000000000600052604160045260246000fd5b6040519080825280601f01601f19166020018201604052801561374b5781602001600182028036833780820191505090505b5090505b600085146137fe576001826137649190614d53565b9150600a856137739190614eb8565b603061377f9190614c72565b60f81b8183815181106137bb577f4e487b7100000000000000000000000000000000000000000000000000000000600052603260045260246000fd5b60200101907effffffffffffffffffffffffffffffffffffffffffffffffffffffffffffff1916908160001a905350600a856137f79190614cc8565b945061374f565b8093505050505b919050565b600080823b905060008111915050919050565b82805461382990614e3d565b90600052602060002090601f01602090048101928261384b5760008555613892565b82601f1061386457805160ff1916838001178555613892565b82800160010185558215613892579182015b82811115613891578251825591602001919060010190613876565b5b50905061389f91906138e3565b5090565b5080546138af90614e3d565b6000825580601f106138c157506138e0565b601f0160209004906000526020600020908101906138df91906138e3565b5b50565b5b808211156138fc5760008160009055506001016138e4565b5090565b600061391361390e84614bcf565b614b9e565b90508281526020810184848401111561392b57600080fd5b613936848285614dfb565b509392505050565b600061395161394c84614bff565b614b9e565b90508281526020810184848401111561396957600080fd5b613974848285614dfb565b509392505050565b60008135905061398b81614fb6565b92915050565b6000813590506139a081614fcd565b92915050565b6000815190506139b581614fcd565b92915050565b6000813590506139ca81614fe4565b92915050565b6000815190506139df81614fe4565b92915050565b600082601f8301126139f657600080fd5b8135613a06848260208601613900565b91505092915050565b600082601f830112613a2057600080fd5b8135613a3084826020860161393e565b91505092915050565b600081359050613a4881614ffb565b92915050565b600060208284031215613a6057600080fd5b6000613a6e8482850161397c565b91505092915050565b60008060408385031215613a8a57600080fd5b6000613a988582860161397c565b9250506020613aa98582860161397c565b9150509250929050565b600080600060608486031215613ac857600080fd5b6000613ad68682870161397c565b9350506020613ae78682870161397c565b9250506040613af886828701613a39565b9150509250925092565b60008060008060808587031215613b1857600080fd5b6000613b268782880161397c565b9450506020613b378782880161397c565b9350506040613b4887828801613a39565b925050606085013567ffffffffffffffff811115613b6557600080fd5b613b71878288016139e5565b91505092959194509250565b60008060408385031215613b9057600080fd5b6000613b9e8582860161397c565b9250506020613baf85828601613991565b9150509250929050565b60008060408385031215613bcc57600080fd5b6000613bda8582860161397c565b925050602083013567ffffffffffffffff811115613bf757600080fd5b613c0385828601613a0f565b9150509250929050565b60008060408385031215613c2057600080fd5b6000613c2e8582860161397c565b9250506020613c3f85828601613a39565b9150509250929050565b600060208284031215613c5b57600080fd5b6000613c69848285016139a6565b91505092915050565b600060208284031215613c8457600080fd5b6000613c92848285016139bb565b91505092915050565b600060208284031215613cad57600080fd5b6000613cbb848285016139d0565b91505092915050565b600060208284031215613cd657600080fd5b6000613ce484828501613a39565b91505092915050565b60008060408385031215613d0057600080fd5b6000613d0e85828601613a39565b925050602083013567ffffffffffffffff811115613d2b57600080fd5b613d3785828601613a0f565b9150509250929050565b60008060408385031215613d5457600080fd5b6000613d6285828601613a39565b9250506020613d7385828601613a39565b9150509250929050565b613d8681614d87565b82525050565b613d9581614d99565b82525050565b6000613da682614c2f565b613db08185614c45565b9350613dc0818560208601614e0a565b613dc981614fa5565b840191505092915050565b6000613ddf82614c3a565b613de98185614c56565b9350613df9818560208601614e0a565b613e0281614fa5565b840191505092915050565b6000613e1882614c3a565b613e228185614c67565b9350613e32818560208601614e0a565b80840191505092915050565b6000613e4b600e83614c56565b91507f21776974686472617757617465720000000000000000000000000000000000006000830152602082019050919050565b6000613e8b600a83614c56565b91507f21776174657261626c65000000000000000000000000000000000000000000006000830152602082019050919050565b6000613ecb603283614c56565b91507f4552433732313a207472616e7366657220746f206e6f6e20455243373231526560008301527f63656976657220696d706c656d656e74657200000000000000000000000000006020830152604082019050919050565b6000613f31601c83614c56565b91507f4552433732313a20746f6b656e20616c7265616479206d696e746564000000006000830152602082019050919050565b6000613f71600983614c56565b91507f2167726f7761626c6500000000000000000000000000000000000000000000006000830152602082019050919050565b6000613fb1602483614c56565b91507f4552433732313a207472616e7366657220746f20746865207a65726f2061646460008301527f72657373000000000000000000000000000000000000000000000000000000006020830152604082019050919050565b6000614017601983614c56565b91507f4552433732313a20617070726f766520746f2063616c6c6572000000000000006000830152602082019050919050565b6000614057602c83614c56565b91507f4552433732313a206f70657261746f7220717565727920666f72206e6f6e657860008301527f697374656e7420746f6b656e00000000000000000000000000000000000000006020830152604082019050919050565b60006140bd601283614c56565b91507f217769746864726177466572746c697a657200000000000000000000000000006000830152602082019050919050565b60006140fd603883614c56565b91507f4552433732313a20617070726f76652063616c6c6572206973206e6f74206f7760008301527f6e6572206e6f7220617070726f76656420666f7220616c6c00000000000000006020830152604082019050919050565b6000614163602a83614c56565b91507f4552433732313a2062616c616e636520717565727920666f7220746865207a6560008301527f726f2061646472657373000000000000000000000000000000000000000000006020830152604082019050919050565b60006141c9602983614c56565b91507f4552433732313a206f776e657220717565727920666f72206e6f6e657869737460008301527f656e7420746f6b656e00000000000000000000000000000000000000000000006020830152604082019050919050565b600061422f600a83614c56565b91507f216361726574616b6572000000000000000000000000000000000000000000006000830152602082019050919050565b600061426f602e83614c56565b91507f45524337323155524953746f726167653a2055524920736574206f66206e6f6e60008301527f6578697374656e7420746f6b656e0000000000000000000000000000000000006020830152604082019050919050565b60006142d5600983614c56565b91507f2177696c7461626c6500000000000000000000000000000000000000000000006000830152602082019050919050565b6000614315600c83614c56565b91507f21736c61736865644665727400000000000000000000000000000000000000006000830152602082019050919050565b6000614355602083614c56565b91507f4552433732313a206d696e7420746f20746865207a65726f20616464726573736000830152602082019050919050565b6000614395603183614c56565b91507f45524337323155524953746f726167653a2055524920717565727920666f722060008301527f6e6f6e6578697374656e7420746f6b656e0000000000000000000000000000006020830152604082019050919050565b60006143fb602c83614c56565b91507f4552433732313a20617070726f76656420717565727920666f72206e6f6e657860008301527f697374656e7420746f6b656e00000000000000000000000000000000000000006020830152604082019050919050565b6000614461602983614c56565b91507f4552433732313a207472616e73666572206f6620746f6b656e2074686174206960008301527f73206e6f74206f776e00000000000000000000000000000000000000000000006020830152604082019050919050565b60006144c7602f83614c56565b91507f4552433732314d657461646174613a2055524920717565727920666f72206e6f60008301527f6e6578697374656e7420746f6b656e00000000000000000000000000000000006020830152604082019050919050565b600061452d602183614c56565b91507f4552433732313a20617070726f76616c20746f2063757272656e74206f776e6560008301527f72000000000000000000000000000000000000000000000000000000000000006020830152604082019050919050565b6000614593603183614c56565b91507f4552433732313a207472616e736665722063616c6c6572206973206e6f74206f60008301527f776e6572206e6f7220617070726f7665640000000000000000000000000000006020830152604082019050919050565b60006145f9600d83614c56565b91507f21736c61736865645761746572000000000000000000000000000000000000006000830152602082019050919050565b6000614639600883614c56565b91507f21776174657265640000000000000000000000000000000000000000000000006000830152602082019050919050565b6000614679600d83614c56565b91507f2166657274616c697a61626c65000000000000000000000000000000000000006000830152602082019050919050565b60006146b9600b83614c56565b91507f2166657274696c697a65640000000000000000000000000000000000000000006000830152602082019050919050565b6146f581614df1565b82525050565b60006147078285613e0d565b91506147138284613e0d565b91508190509392505050565b60006020820190506147346000830184613d7d565b92915050565b600060608201905061474f6000830186613d7d565b61475c6020830185613d7d565b61476960408301846146ec565b949350505050565b60006080820190506147866000830187613d7d565b6147936020830186613d7d565b6147a060408301856146ec565b81810360608301526147b28184613d9b565b905095945050505050565b60006040820190506147d26000830185613d7d565b6147df60208301846146ec565b9392505050565b60006020820190506147fb6000830184613d8c565b92915050565b6000602082019050818103600083015261481b8184613dd4565b905092915050565b6000602082019050818103600083015261483c81613e3e565b9050919050565b6000602082019050818103600083015261485c81613e7e565b9050919050565b6000602082019050818103600083015261487c81613ebe565b9050919050565b6000602082019050818103600083015261489c81613f24565b9050919050565b600060208201905081810360008301526148bc81613f64565b9050919050565b600060208201905081810360008301526148dc81613fa4565b9050919050565b600060208201905081810360008301526148fc8161400a565b9050919050565b6000602082019050818103600083015261491c8161404a565b9050919050565b6000602082019050818103600083015261493c816140b0565b9050919050565b6000602082019050818103600083015261495c816140f0565b9050919050565b6000602082019050818103600083015261497c81614156565b9050919050565b6000602082019050818103600083015261499c816141bc565b9050919050565b600060208201905081810360008301526149bc81614222565b9050919050565b600060208201905081810360008301526149dc81614262565b9050919050565b600060208201905081810360008301526149fc816142c8565b9050919050565b60006020820190508181036000830152614a1c81614308565b9050919050565b60006020820190508181036000830152614a3c81614348565b9050919050565b60006020820190508181036000830152614a5c81614388565b9050919050565b60006020820190508181036000830152614a7c816143ee565b9050919050565b60006020820190508181036000830152614a9c81614454565b9050919050565b60006020820190508181036000830152614abc816144ba565b9050919050565b60006020820190508181036000830152614adc81614520565b9050919050565b60006020820190508181036000830152614afc81614586565b9050919050565b60006020820190508181036000830152614b1c816145ec565b9050919050565b60006020820190508181036000830152614b3c8161462c565b9050919050565b60006020820190508181036000830152614b5c8161466c565b9050919050565b60006020820190508181036000830152614b7c816146ac565b9050919050565b6000602082019050614b9860008301846146ec565b92915050565b6000604051905081810181811067ffffffffffffffff82111715614bc557614bc4614f76565b5b8060405250919050565b600067ffffffffffffffff821115614bea57614be9614f76565b5b601f19601f8301169050602081019050919050565b600067ffffffffffffffff821115614c1a57614c19614f76565b5b601f19601f8301169050602081019050919050565b600081519050919050565b600081519050919050565b600082825260208201905092915050565b600082825260208201905092915050565b600081905092915050565b6000614c7d82614df1565b9150614c8883614df1565b9250827fffffffffffffffffffffffffffffffffffffffffffffffffffffffffffffffff03821115614cbd57614cbc614ee9565b5b828201905092915050565b6000614cd382614df1565b9150614cde83614df1565b925082614cee57614ced614f18565b5b828204905092915050565b6000614d0482614df1565b9150614d0f83614df1565b9250817fffffffffffffffffffffffffffffffffffffffffffffffffffffffffffffffff0483118215151615614d4857614d47614ee9565b5b828202905092915050565b6000614d5e82614df1565b9150614d6983614df1565b925082821015614d7c57614d7b614ee9565b5b828203905092915050565b6000614d9282614dd1565b9050919050565b60008115159050919050565b60007fffffffff0000000000000000000000000000000000000000000000000000000082169050919050565b600073ffffffffffffffffffffffffffffffffffffffff82169050919050565b6000819050919050565b82818337600083830152505050565b60005b83811015614e28578082015181840152602081019050614e0d565b83811115614e37576000848401525b50505050565b60006002820490506001821680614e5557607f821691505b60208210811415614e6957614e68614f47565b5b50919050565b6000614e7a82614df1565b91507fffffffffffffffffffffffffffffffffffffffffffffffffffffffffffffffff821415614ead57614eac614ee9565b5b600182019050919050565b6000614ec382614df1565b9150614ece83614df1565b925082614ede57614edd614f18565b5b828206905092915050565b7f4e487b7100000000000000000000000000000000000000000000000000000000600052601160045260246000fd5b7f4e487b7100000000000000000000000000000000000000000000000000000000600052601260045260246000fd5b7f4e487b7100000000000000000000000000000000000000000000000000000000600052602260045260246000fd5b7f4e487b7100000000000000000000000000000000000000000000000000000000600052604160045260246000fd5b6000601f19601f8301169050919050565b614fbf81614d87565b8114614fca57600080fd5b50565b614fd681614d99565b8114614fe157600080fd5b50565b614fed81614da5565b8114614ff857600080fd5b50565b61500481614df1565b811461500f57600080fd5b5056fea264697066735822122091d8488bb50a4f0e477ef338036e02fac3184ec0859f59d8782ec930199a273564736f6c63430008000033",
  "immutableReferences": {},
  "source": "// contracts/GameItem.sol\n// SPDX-License-Identifier: MIT\npragma solidity ^0.8.0;\n\nimport \"@openzeppelin/contracts/token/ERC721/ERC721.sol\";\nimport \"@openzeppelin/contracts/token/ERC20/IERC20.sol\";\nimport \"@openzeppelin/contracts/token/ERC721/extensions/ERC721URIStorage.sol\";\nimport \"@openzeppelin/contracts/utils/Counters.sol\";\nimport \"@openzeppelin/contracts/utils/math/SafeMath.sol\";\n\ncontract BonsaiBank is ERC721URIStorage {\n    using SafeMath for uint256;\n    using Counters for Counters.Counter;\n    Counters.Counter private bonsaiIds;\n\n    struct Bonsai {\n      uint256 lastWatered;               // The last time the bonsai was watered\n      uint256 consecutiveWaterings;      // The number of waterings gone without missing a watering\n      uint256 waterBalance;              // The amount of water tokens deposited\n      uint256 lastFertilized;            // The last time the bonsai was fertilized\n      uint256 consecutiveFertilizings;   // The number of fertilizings without missing a fertilize\n      uint256 fertilizerBalance;         // The amount of fertilizer tokens deposited\n      uint256 lifeStage;                 // The amount of times this bonsai has been grown or wilted\n    }\n\n    Bonsai[] bonsaiBanks;                // All bonsai banks, indexible by bonsai/tokenId - 1\n\n    address botanist;                   // The owner of the contract, has control of the protocol\n    address waterToken;                 // The ERC20 token address to use for watering\n    address fertToken;                  // The ERC20 token address to use for fertilizing\n    uint256 waterAmount;                // The amount of waterTokens needed for watering\n    uint256 fertAmount;                 // The amount of fertTokens needed for fertilizing\n    uint256 waterRate;                  // The time delay between waterings in seconds\n    uint256 fertRate;                   // The time delay between fertilizing in seconds\n    uint256 wateringsToGrow;            // The number of consecutive waterings needed to grow\n\n\n    constructor(address _botanist) ERC721(\"Bonsai Bank\", \"BNZI\") {\n        botanist = _botanist;\n    }\n\n    modifier onlyBotanist {\n      require(msg.sender == botanist);\n      _;\n    }\n\n    // Getter Methods\n\n    function getBotanist() public view returns(address) {\n      return botanist;\n    }\n\n    function getWaterToken() public view returns(address) {\n      return waterToken;\n    }\n\n    function getFertToken() public view returns(address) {\n      return fertToken;\n    }\n\n    function getWaterAmount() public view returns(uint256) {\n      return waterAmount;\n    }\n\n    function getFertAmount() public view returns(uint256) {\n      return fertAmount;\n    }\n\n    function getWaterRate() public view returns(uint256) {\n      return waterRate;\n    }\n\n    function getFertRate() public view returns(uint256) {\n      return fertRate;\n    }\n\n    function lastWatered(uint256 bonsaiId) external view returns (uint256){\n      return bonsaiBanks[bonsaiId-1].lastWatered;\n    }\n\n    function consecutiveWaterings(uint256 bonsaiId) external view returns (uint256){\n      return bonsaiBanks[bonsaiId-1].consecutiveWaterings;\n    }\n\n    function waterBalance(uint256 bonsaiId) external view returns (uint256){\n      return bonsaiBanks[bonsaiId-1].waterBalance;\n    }\n\n    function lastFertilized(uint256 bonsaiId) external view returns (uint256){\n      return bonsaiBanks[bonsaiId-1].lastFertilized;\n    }\n\n    function consecutiveFertilizings(uint256 bonsaiId) external view returns (uint256){\n      return bonsaiBanks[bonsaiId-1].consecutiveFertilizings;\n    }\n\n    function fertilizerBalance(uint256 bonsaiId) external view returns (uint256){\n      return bonsaiBanks[bonsaiId-1].fertilizerBalance;\n    }\n\n    function lifeStage(uint256 bonsaiId) external view returns (uint256){\n      return bonsaiBanks[bonsaiId-1].lifeStage;\n    }\n\n    function exists(uint256 bonsaiId) external view returns (bool){\n      return _exists(bonsaiId);\n    }\n\n    // Setter Methods\n    function setBotanist(address _botanist) external onlyBotanist {\n      botanist = _botanist;\n    }\n\n    function setWaterToken(address _waterToken) external onlyBotanist {\n      waterToken = _waterToken;\n    }\n\n    function setFertToken(address _fertToken) external onlyBotanist {\n      fertToken = _fertToken;\n    }\n\n    function setWaterAmount(uint256 _waterAmount) external onlyBotanist {\n      waterAmount = _waterAmount;\n    }\n\n    function setFertAmount(uint256 _fertAmount) external onlyBotanist {\n      fertAmount = _fertAmount;\n    }\n\n    function setWaterRate(uint256 _waterRate) external onlyBotanist {\n      waterRate = _waterRate;\n    }\n\n    function setFertRate(uint256 _fertRate) external onlyBotanist {\n      fertRate = _fertRate;\n    }\n\n    function setWateringsToGrow(uint256 _wateringsToGrow) external onlyBotanist {\n      wateringsToGrow = _wateringsToGrow;\n    }\n\n    // Interal only setters for Bonsai Banks\n    function setLastWatered(uint256 bonsaiId, uint256 _lastWatered) internal {\n      bonsaiBanks[bonsaiId-1].lastWatered = _lastWatered;\n    }\n\n    function setConsecutiveWaterings(uint256 bonsaiId, uint256 _consecutiveWaterings) internal {\n      bonsaiBanks[bonsaiId-1].consecutiveWaterings = _consecutiveWaterings;\n    }\n\n    function setWaterBalance(uint256 bonsaiId, uint256 _waterBalance) internal {\n      bonsaiBanks[bonsaiId-1].waterBalance = _waterBalance;\n    }\n\n    function setLastFertilized(uint256 bonsaiId, uint256 _lastFertilized) internal {\n      bonsaiBanks[bonsaiId-1].lastFertilized = _lastFertilized;\n    }\n\n    function setConsecutiveFertilizings(uint256 bonsaiId, uint256 _consecutiveFertilizings) internal {\n      bonsaiBanks[bonsaiId-1].consecutiveFertilizings = _consecutiveFertilizings;\n    }\n\n    function setFertilizerBalance(uint256 bonsaiId, uint256 _fertilizerBalance) internal {\n      bonsaiBanks[bonsaiId-1].fertilizerBalance = _fertilizerBalance;\n    }\n\n    function setLifeStage(uint256 bonsaiId, uint256 _lifeStage) external {\n      bonsaiBanks[bonsaiId-1].lifeStage = _lifeStage;\n    }\n\n    // Core Bonsai Bank Functionality\n\n    // @dev Mints a new Bonsai Bank directly to the caretaker\n    function mint(address caretaker, string memory bonsaiURI) external onlyBotanist returns (uint256 bonsaiId)  {\n      bonsaiIds.increment();\n      uint256 _bonsaiId = bonsaiIds.current();\n      Bonsai memory bb = Bonsai(0,0,0,0,0,0,0);\n      _mint(caretaker, _bonsaiId);\n      _setTokenURI(_bonsaiId, bonsaiURI);\n      bonsaiBanks.push(bb);\n      return _bonsaiId;\n    }\n\n    function water(uint256 _bonsaiId) external {\n      require(bonsaiBanks[_bonsaiId - 1].lastWatered < block.timestamp - waterRate, \"!waterable\");\n      require(IERC20(waterToken).transferFrom(msg.sender, address(this), getWaterAmount()), \"!watered\");\n      bonsaiBanks[_bonsaiId - 1].lastWatered = block.timestamp;\n      bonsaiBanks[_bonsaiId - 1].consecutiveWaterings += 1;\n      bonsaiBanks[_bonsaiId - 1].waterBalance += getWaterAmount();\n    }\n\n    function fertilize(uint256 _bonsaiId) external {\n      require(bonsaiBanks[_bonsaiId - 1].lastFertilized < block.timestamp - fertRate, \"!fertalizable\");\n      require(IERC20(fertToken).transferFrom(msg.sender, address(this), getFertAmount()), \"!fertilized\");\n      bonsaiBanks[_bonsaiId - 1].lastFertilized = block.timestamp;\n      bonsaiBanks[_bonsaiId - 1].consecutiveFertilizings += 1;\n      bonsaiBanks[_bonsaiId - 1].fertilizerBalance += getFertAmount();\n    }\n\n    function grow(uint256 _bonsaiId, string memory _bonsaiURI) external onlyBotanist {\n      require(bonsaiBanks[_bonsaiId - 1].consecutiveWaterings >= wateringsToGrow, \"!growable\");\n      _setTokenURI(_bonsaiId, _bonsaiURI);\n      bonsaiBanks[_bonsaiId - 1].lifeStage += 1;\n      bonsaiBanks[_bonsaiId - 1].consecutiveWaterings = 0;\n    }\n\n    function wilt(uint256 _bonsaiId, string memory _bonsaiURI) external onlyBotanist {\n      require(bonsaiBanks[_bonsaiId - 1].lastWatered <= block.timestamp - waterRate.mul(2), \"!wiltable\");\n      uint256 waterSlashAmount = bonsaiBanks[_bonsaiId - 1].waterBalance.mul(95).div(100);     // TODO: Safe Math\n      uint256 fertSlashAmount = bonsaiBanks[_bonsaiId - 1].fertilizerBalance.mul(95).div(100); // TODO: Safe Math\n      require(IERC20(waterToken).transfer(botanist,  waterSlashAmount), \"!slashedWater\");\n      require(IERC20(fertToken).transfer(botanist, fertSlashAmount), \"!slashedFert\");\n      _setTokenURI(_bonsaiId, _bonsaiURI);\n      bonsaiBanks[_bonsaiId - 1].consecutiveWaterings = 0;\n      bonsaiBanks[_bonsaiId - 1].consecutiveFertilizings = 0;\n    }\n\n    function destroy(uint256 _bonsaiId) external {\n      require(ownerOf(_bonsaiId) == msg.sender, \"!caretaker\");\n      require(IERC20(waterToken).transfer(msg.sender,  bonsaiBanks[_bonsaiId - 1].waterBalance), \"!withdrawWater\");\n      require(IERC20(fertToken).transfer(msg.sender, bonsaiBanks[_bonsaiId - 1].fertilizerBalance), \"!withdrawFertlizer\");\n      bonsaiBanks[_bonsaiId - 1].waterBalance = 0;\n      bonsaiBanks[_bonsaiId - 1].fertilizerBalance = 0;\n      _burn(_bonsaiId);\n    }\n\n}\n",
  "sourcePath": "/Users/praffulsahu/Documents/Crypto/fellowship/bonsai-banks/02-Dapp/contracts/BonsaiBank.sol",
  "compiler": {
    "name": "solc",
    "version": "0.8.0+commit.c7dfd78e.Emscripten.clang"
  },
  "schemaVersion": "3.3.3",
  "updatedAt": "2021-07-12T14:36:34.456Z",
  "networkType": "ethereum",
  "devdoc": {
    "kind": "dev",
    "methods": {
      "approve(address,uint256)": {
        "details": "See {IERC721-approve}."
      },
      "balanceOf(address)": {
        "details": "See {IERC721-balanceOf}."
      },
      "getApproved(uint256)": {
        "details": "See {IERC721-getApproved}."
      },
      "isApprovedForAll(address,address)": {
        "details": "See {IERC721-isApprovedForAll}."
      },
      "name()": {
        "details": "See {IERC721Metadata-name}."
      },
      "ownerOf(uint256)": {
        "details": "See {IERC721-ownerOf}."
      },
      "safeTransferFrom(address,address,uint256)": {
        "details": "See {IERC721-safeTransferFrom}."
      },
      "safeTransferFrom(address,address,uint256,bytes)": {
        "details": "See {IERC721-safeTransferFrom}."
      },
      "setApprovalForAll(address,bool)": {
        "details": "See {IERC721-setApprovalForAll}."
      },
      "supportsInterface(bytes4)": {
        "details": "See {IERC165-supportsInterface}."
      },
      "symbol()": {
        "details": "See {IERC721Metadata-symbol}."
      },
      "tokenURI(uint256)": {
        "details": "See {IERC721Metadata-tokenURI}."
      },
      "transferFrom(address,address,uint256)": {
        "details": "See {IERC721-transferFrom}."
      }
    },
    "version": 1
  },
  "userdoc": {
    "kind": "user",
    "methods": {},
    "version": 1
  }
}