{
  "contractName": "BonsaiBank",
  "abi": [
    {
      "inputs": [
        {
          "internalType": "address",
          "name": "_botanist",
          "type": "address"
        }
      ],
      "stateMutability": "nonpayable",
      "type": "constructor"
    },
    {
      "anonymous": false,
      "inputs": [
        {
          "indexed": true,
          "internalType": "address",
          "name": "owner",
          "type": "address"
        },
        {
          "indexed": true,
          "internalType": "address",
          "name": "approved",
          "type": "address"
        },
        {
          "indexed": true,
          "internalType": "uint256",
          "name": "tokenId",
          "type": "uint256"
        }
      ],
      "name": "Approval",
      "type": "event"
    },
    {
      "anonymous": false,
      "inputs": [
        {
          "indexed": true,
          "internalType": "address",
          "name": "owner",
          "type": "address"
        },
        {
          "indexed": true,
          "internalType": "address",
          "name": "operator",
          "type": "address"
        },
        {
          "indexed": false,
          "internalType": "bool",
          "name": "approved",
          "type": "bool"
        }
      ],
      "name": "ApprovalForAll",
      "type": "event"
    },
    {
      "anonymous": false,
      "inputs": [
        {
          "indexed": false,
          "internalType": "address",
          "name": "caretaker",
          "type": "address"
        },
        {
          "indexed": false,
          "internalType": "uint256",
          "name": "_bonsaiId",
          "type": "uint256"
        },
        {
          "indexed": false,
          "internalType": "string",
          "name": "bonsaiURI",
          "type": "string"
        },
        {
          "indexed": false,
          "internalType": "address",
          "name": "botanist",
          "type": "address"
        }
      ],
      "name": "BonsaiCreated",
      "type": "event"
    },
    {
      "anonymous": false,
      "inputs": [
        {
          "indexed": false,
          "internalType": "address",
          "name": "botanist",
          "type": "address"
        },
        {
          "indexed": false,
          "internalType": "uint256",
          "name": "_bonsaiID",
          "type": "uint256"
        },
        {
          "indexed": false,
          "internalType": "uint256",
          "name": "waterBalance",
          "type": "uint256"
        },
        {
          "indexed": false,
          "internalType": "uint256",
          "name": "fertilizerBalance",
          "type": "uint256"
        }
      ],
      "name": "BonsaiDestroy",
      "type": "event"
    },
    {
      "anonymous": false,
      "inputs": [
        {
          "indexed": false,
          "internalType": "address",
          "name": "waterer",
          "type": "address"
        },
        {
          "indexed": false,
          "internalType": "uint256",
          "name": "_bonsaiId",
          "type": "uint256"
        },
        {
          "indexed": false,
          "internalType": "uint256",
          "name": "lastFertilized",
          "type": "uint256"
        },
        {
          "indexed": false,
          "internalType": "uint256",
          "name": "consecutiveFertilizings",
          "type": "uint256"
        },
        {
          "indexed": false,
          "internalType": "uint256",
          "name": "fertilizerBalance",
          "type": "uint256"
        }
      ],
      "name": "BonsaiFertilized",
      "type": "event"
    },
    {
      "anonymous": false,
      "inputs": [
        {
          "indexed": false,
          "internalType": "address",
          "name": "botanist",
          "type": "address"
        },
        {
          "indexed": false,
          "internalType": "uint256",
          "name": "_bonsaiID",
          "type": "uint256"
        },
        {
          "indexed": false,
          "internalType": "string",
          "name": "_bonsaiURI",
          "type": "string"
        },
        {
          "indexed": false,
          "internalType": "uint256",
          "name": "lifeStage",
          "type": "uint256"
        },
        {
          "indexed": false,
          "internalType": "uint256",
          "name": "consecutiveWaterings",
          "type": "uint256"
        }
      ],
      "name": "BonsaiGrow",
      "type": "event"
    },
    {
      "anonymous": false,
      "inputs": [
        {
          "indexed": false,
          "internalType": "address",
          "name": "waterer",
          "type": "address"
        },
        {
          "indexed": false,
          "internalType": "uint256",
          "name": "_bonsaiId",
          "type": "uint256"
        },
        {
          "indexed": false,
          "internalType": "uint256",
          "name": "lastWatered",
          "type": "uint256"
        },
        {
          "indexed": false,
          "internalType": "uint256",
          "name": "consecutiveWaterings",
          "type": "uint256"
        },
        {
          "indexed": false,
          "internalType": "uint256",
          "name": "waterBalance",
          "type": "uint256"
        }
      ],
      "name": "BonsaiWatered",
      "type": "event"
    },
    {
      "anonymous": false,
      "inputs": [
        {
          "indexed": false,
          "internalType": "address",
          "name": "botanist",
          "type": "address"
        },
        {
          "indexed": false,
          "internalType": "uint256",
          "name": "_bonsaiID",
          "type": "uint256"
        },
        {
          "indexed": false,
          "internalType": "string",
          "name": "_bonsaiURI",
          "type": "string"
        },
        {
          "indexed": false,
          "internalType": "uint256",
          "name": "consecutiveFertilizings",
          "type": "uint256"
        },
        {
          "indexed": false,
          "internalType": "uint256",
          "name": "consecutiveWaterings",
          "type": "uint256"
        }
      ],
      "name": "BonsaiWilt",
      "type": "event"
    },
    {
      "anonymous": false,
      "inputs": [
        {
          "indexed": true,
          "internalType": "address",
          "name": "from",
          "type": "address"
        },
        {
          "indexed": true,
          "internalType": "address",
          "name": "to",
          "type": "address"
        },
        {
          "indexed": true,
          "internalType": "uint256",
          "name": "tokenId",
          "type": "uint256"
        }
      ],
      "name": "Transfer",
      "type": "event"
    },
    {
      "inputs": [
        {
          "internalType": "address",
          "name": "to",
          "type": "address"
        },
        {
          "internalType": "uint256",
          "name": "tokenId",
          "type": "uint256"
        }
      ],
      "name": "approve",
      "outputs": [],
      "stateMutability": "nonpayable",
      "type": "function"
    },
    {
      "inputs": [
        {
          "internalType": "address",
          "name": "owner",
          "type": "address"
        }
      ],
      "name": "balanceOf",
      "outputs": [
        {
          "internalType": "uint256",
          "name": "",
          "type": "uint256"
        }
      ],
      "stateMutability": "view",
      "type": "function",
      "constant": true
    },
    {
      "inputs": [
        {
          "internalType": "uint256",
          "name": "tokenId",
          "type": "uint256"
        }
      ],
      "name": "getApproved",
      "outputs": [
        {
          "internalType": "address",
          "name": "",
          "type": "address"
        }
      ],
      "stateMutability": "view",
      "type": "function",
      "constant": true
    },
    {
      "inputs": [
        {
          "internalType": "address",
          "name": "owner",
          "type": "address"
        },
        {
          "internalType": "address",
          "name": "operator",
          "type": "address"
        }
      ],
      "name": "isApprovedForAll",
      "outputs": [
        {
          "internalType": "bool",
          "name": "",
          "type": "bool"
        }
      ],
      "stateMutability": "view",
      "type": "function",
      "constant": true
    },
    {
      "inputs": [],
      "name": "name",
      "outputs": [
        {
          "internalType": "string",
          "name": "",
          "type": "string"
        }
      ],
      "stateMutability": "view",
      "type": "function",
      "constant": true
    },
    {
      "inputs": [
        {
          "internalType": "uint256",
          "name": "tokenId",
          "type": "uint256"
        }
      ],
      "name": "ownerOf",
      "outputs": [
        {
          "internalType": "address",
          "name": "",
          "type": "address"
        }
      ],
      "stateMutability": "view",
      "type": "function",
      "constant": true
    },
    {
      "inputs": [
        {
          "internalType": "address",
          "name": "from",
          "type": "address"
        },
        {
          "internalType": "address",
          "name": "to",
          "type": "address"
        },
        {
          "internalType": "uint256",
          "name": "tokenId",
          "type": "uint256"
        }
      ],
      "name": "safeTransferFrom",
      "outputs": [],
      "stateMutability": "nonpayable",
      "type": "function"
    },
    {
      "inputs": [
        {
          "internalType": "address",
          "name": "from",
          "type": "address"
        },
        {
          "internalType": "address",
          "name": "to",
          "type": "address"
        },
        {
          "internalType": "uint256",
          "name": "tokenId",
          "type": "uint256"
        },
        {
          "internalType": "bytes",
          "name": "_data",
          "type": "bytes"
        }
      ],
      "name": "safeTransferFrom",
      "outputs": [],
      "stateMutability": "nonpayable",
      "type": "function"
    },
    {
      "inputs": [
        {
          "internalType": "address",
          "name": "operator",
          "type": "address"
        },
        {
          "internalType": "bool",
          "name": "approved",
          "type": "bool"
        }
      ],
      "name": "setApprovalForAll",
      "outputs": [],
      "stateMutability": "nonpayable",
      "type": "function"
    },
    {
      "inputs": [
        {
          "internalType": "bytes4",
          "name": "interfaceId",
          "type": "bytes4"
        }
      ],
      "name": "supportsInterface",
      "outputs": [
        {
          "internalType": "bool",
          "name": "",
          "type": "bool"
        }
      ],
      "stateMutability": "view",
      "type": "function",
      "constant": true
    },
    {
      "inputs": [],
      "name": "symbol",
      "outputs": [
        {
          "internalType": "string",
          "name": "",
          "type": "string"
        }
      ],
      "stateMutability": "view",
      "type": "function",
      "constant": true
    },
    {
      "inputs": [
        {
          "internalType": "uint256",
          "name": "tokenId",
          "type": "uint256"
        }
      ],
      "name": "tokenURI",
      "outputs": [
        {
          "internalType": "string",
          "name": "",
          "type": "string"
        }
      ],
      "stateMutability": "view",
      "type": "function",
      "constant": true
    },
    {
      "inputs": [
        {
          "internalType": "address",
          "name": "from",
          "type": "address"
        },
        {
          "internalType": "address",
          "name": "to",
          "type": "address"
        },
        {
          "internalType": "uint256",
          "name": "tokenId",
          "type": "uint256"
        }
      ],
      "name": "transferFrom",
      "outputs": [],
      "stateMutability": "nonpayable",
      "type": "function"
    },
    {
      "inputs": [],
      "name": "getBotanist",
      "outputs": [
        {
          "internalType": "address",
          "name": "",
          "type": "address"
        }
      ],
      "stateMutability": "view",
      "type": "function",
      "constant": true
    },
    {
      "inputs": [],
      "name": "getWaterToken",
      "outputs": [
        {
          "internalType": "address",
          "name": "",
          "type": "address"
        }
      ],
      "stateMutability": "view",
      "type": "function",
      "constant": true
    },
    {
      "inputs": [],
      "name": "getFertToken",
      "outputs": [
        {
          "internalType": "address",
          "name": "",
          "type": "address"
        }
      ],
      "stateMutability": "view",
      "type": "function",
      "constant": true
    },
    {
      "inputs": [],
      "name": "getWaterAmount",
      "outputs": [
        {
          "internalType": "uint256",
          "name": "",
          "type": "uint256"
        }
      ],
      "stateMutability": "view",
      "type": "function",
      "constant": true
    },
    {
      "inputs": [],
      "name": "getFertAmount",
      "outputs": [
        {
          "internalType": "uint256",
          "name": "",
          "type": "uint256"
        }
      ],
      "stateMutability": "view",
      "type": "function",
      "constant": true
    },
    {
      "inputs": [],
      "name": "getWaterRate",
      "outputs": [
        {
          "internalType": "uint256",
          "name": "",
          "type": "uint256"
        }
      ],
      "stateMutability": "view",
      "type": "function",
      "constant": true
    },
    {
      "inputs": [],
      "name": "getFertRate",
      "outputs": [
        {
          "internalType": "uint256",
          "name": "",
          "type": "uint256"
        }
      ],
      "stateMutability": "view",
      "type": "function",
      "constant": true
    },
    {
      "inputs": [
        {
          "internalType": "uint256",
          "name": "bonsaiId",
          "type": "uint256"
        }
      ],
      "name": "lastWatered",
      "outputs": [
        {
          "internalType": "uint256",
          "name": "",
          "type": "uint256"
        }
      ],
      "stateMutability": "view",
      "type": "function",
      "constant": true
    },
    {
      "inputs": [
        {
          "internalType": "uint256",
          "name": "bonsaiId",
          "type": "uint256"
        }
      ],
      "name": "consecutiveWaterings",
      "outputs": [
        {
          "internalType": "uint256",
          "name": "",
          "type": "uint256"
        }
      ],
      "stateMutability": "view",
      "type": "function",
      "constant": true
    },
    {
      "inputs": [
        {
          "internalType": "uint256",
          "name": "bonsaiId",
          "type": "uint256"
        }
      ],
      "name": "waterBalance",
      "outputs": [
        {
          "internalType": "uint256",
          "name": "",
          "type": "uint256"
        }
      ],
      "stateMutability": "view",
      "type": "function",
      "constant": true
    },
    {
      "inputs": [
        {
          "internalType": "uint256",
          "name": "bonsaiId",
          "type": "uint256"
        }
      ],
      "name": "lastFertilized",
      "outputs": [
        {
          "internalType": "uint256",
          "name": "",
          "type": "uint256"
        }
      ],
      "stateMutability": "view",
      "type": "function",
      "constant": true
    },
    {
      "inputs": [
        {
          "internalType": "uint256",
          "name": "bonsaiId",
          "type": "uint256"
        }
      ],
      "name": "consecutiveFertilizings",
      "outputs": [
        {
          "internalType": "uint256",
          "name": "",
          "type": "uint256"
        }
      ],
      "stateMutability": "view",
      "type": "function",
      "constant": true
    },
    {
      "inputs": [
        {
          "internalType": "uint256",
          "name": "bonsaiId",
          "type": "uint256"
        }
      ],
      "name": "fertilizerBalance",
      "outputs": [
        {
          "internalType": "uint256",
          "name": "",
          "type": "uint256"
        }
      ],
      "stateMutability": "view",
      "type": "function",
      "constant": true
    },
    {
      "inputs": [
        {
          "internalType": "uint256",
          "name": "bonsaiId",
          "type": "uint256"
        }
      ],
      "name": "lifeStage",
      "outputs": [
        {
          "internalType": "uint256",
          "name": "",
          "type": "uint256"
        }
      ],
      "stateMutability": "view",
      "type": "function",
      "constant": true
    },
    {
      "inputs": [
        {
          "internalType": "uint256",
          "name": "bonsaiId",
          "type": "uint256"
        }
      ],
      "name": "exists",
      "outputs": [
        {
          "internalType": "bool",
          "name": "",
          "type": "bool"
        }
      ],
      "stateMutability": "view",
      "type": "function",
      "constant": true
    },
    {
      "inputs": [
        {
          "internalType": "address",
          "name": "_botanist",
          "type": "address"
        }
      ],
      "name": "setBotanist",
      "outputs": [],
      "stateMutability": "nonpayable",
      "type": "function"
    },
    {
      "inputs": [
        {
          "internalType": "address",
          "name": "_waterToken",
          "type": "address"
        }
      ],
      "name": "setWaterToken",
      "outputs": [],
      "stateMutability": "nonpayable",
      "type": "function"
    },
    {
      "inputs": [
        {
          "internalType": "address",
          "name": "_fertToken",
          "type": "address"
        }
      ],
      "name": "setFertToken",
      "outputs": [],
      "stateMutability": "nonpayable",
      "type": "function"
    },
    {
      "inputs": [
        {
          "internalType": "uint256",
          "name": "_waterAmount",
          "type": "uint256"
        }
      ],
      "name": "setWaterAmount",
      "outputs": [],
      "stateMutability": "nonpayable",
      "type": "function"
    },
    {
      "inputs": [
        {
          "internalType": "uint256",
          "name": "_fertAmount",
          "type": "uint256"
        }
      ],
      "name": "setFertAmount",
      "outputs": [],
      "stateMutability": "nonpayable",
      "type": "function"
    },
    {
      "inputs": [
        {
          "internalType": "uint256",
          "name": "_waterRate",
          "type": "uint256"
        }
      ],
      "name": "setWaterRate",
      "outputs": [],
      "stateMutability": "nonpayable",
      "type": "function"
    },
    {
      "inputs": [
        {
          "internalType": "uint256",
          "name": "_fertRate",
          "type": "uint256"
        }
      ],
      "name": "setFertRate",
      "outputs": [],
      "stateMutability": "nonpayable",
      "type": "function"
    },
    {
      "inputs": [
        {
          "internalType": "uint256",
          "name": "_wateringsToGrow",
          "type": "uint256"
        }
      ],
      "name": "setWateringsToGrow",
      "outputs": [],
      "stateMutability": "nonpayable",
      "type": "function"
    },
    {
      "inputs": [
        {
          "internalType": "uint256",
          "name": "bonsaiId",
          "type": "uint256"
        },
        {
          "internalType": "uint256",
          "name": "_lifeStage",
          "type": "uint256"
        }
      ],
      "name": "setLifeStage",
      "outputs": [],
      "stateMutability": "nonpayable",
      "type": "function"
    },
    {
      "inputs": [
        {
          "internalType": "address",
          "name": "caretaker",
          "type": "address"
        },
        {
          "internalType": "string",
          "name": "bonsaiURI",
          "type": "string"
        }
      ],
      "name": "mint",
      "outputs": [
        {
          "internalType": "uint256",
          "name": "bonsaiId",
          "type": "uint256"
        }
      ],
      "stateMutability": "nonpayable",
      "type": "function"
    },
    {
      "inputs": [
        {
          "internalType": "uint256",
          "name": "_bonsaiId",
          "type": "uint256"
        }
      ],
      "name": "water",
      "outputs": [],
      "stateMutability": "nonpayable",
      "type": "function"
    },
    {
      "inputs": [
        {
          "internalType": "uint256",
          "name": "_bonsaiId",
          "type": "uint256"
        }
      ],
      "name": "fertilize",
      "outputs": [],
      "stateMutability": "nonpayable",
      "type": "function"
    },
    {
      "inputs": [
        {
          "internalType": "uint256",
          "name": "_bonsaiId",
          "type": "uint256"
        },
        {
          "internalType": "string",
          "name": "_bonsaiURI",
          "type": "string"
        }
      ],
      "name": "grow",
      "outputs": [],
      "stateMutability": "nonpayable",
      "type": "function"
    },
    {
      "inputs": [
        {
          "internalType": "uint256",
          "name": "_bonsaiId",
          "type": "uint256"
        },
        {
          "internalType": "string",
          "name": "_bonsaiURI",
          "type": "string"
        }
      ],
      "name": "wilt",
      "outputs": [],
      "stateMutability": "nonpayable",
      "type": "function"
    },
    {
      "inputs": [
        {
          "internalType": "uint256",
          "name": "_bonsaiId",
          "type": "uint256"
        }
      ],
      "name": "destroy",
      "outputs": [],
      "stateMutability": "nonpayable",
      "type": "function"
    }
  ],
  "bytecode": "0x60806040523480156200001157600080fd5b5060405162005a6d38038062005a6d8339818101604052810190620000379190620001e6565b6040518060400160405280600b81526020017f426f6e7361692042616e6b0000000000000000000000000000000000000000008152506040518060400160405280600481526020017f424e5a49000000000000000000000000000000000000000000000000000000008152508160009080519060200190620000bb9291906200011f565b508060019080519060200190620000d49291906200011f565b50505080600960006101000a81548173ffffffffffffffffffffffffffffffffffffffff021916908373ffffffffffffffffffffffffffffffffffffffff16021790555050620002c5565b8280546200012d9062000246565b90600052602060002090601f0160209004810192826200015157600085556200019d565b82601f106200016c57805160ff19168380011785556200019d565b828001600101855582156200019d579182015b828111156200019c5782518255916020019190600101906200017f565b5b509050620001ac9190620001b0565b5090565b5b80821115620001cb576000816000905550600101620001b1565b5090565b600081519050620001e081620002ab565b92915050565b600060208284031215620001f957600080fd5b60006200020984828501620001cf565b91505092915050565b60006200021f8262000226565b9050919050565b600073ffffffffffffffffffffffffffffffffffffffff82169050919050565b600060028204905060018216806200025f57607f821691505b602082108114156200027657620002756200027c565b5b50919050565b7f4e487b7100000000000000000000000000000000000000000000000000000000600052602260045260246000fd5b620002b68162000212565b8114620002c257600080fd5b50565b61579880620002d56000396000f3fe608060405234801561001057600080fd5b50600436106102695760003560e01c806391eb40f511610151578063c29e33cb116100c3578063d0def52111610087578063d0def5211461078e578063d6a82b99146107be578063db125067146107da578063e4ea4d02146107f8578063e54bb83914610814578063e985e9c51461083057610269565b8063c29e33cb146106ea578063c4308df114610708578063c87b56dd14610726578063cd1b3db014610756578063ce9495a81461077257610269565b80639afe7e5d116101155780639afe7e5d1461061a5780639d1187701461064a578063a22cb46514610666578063a67e751214610682578063a7eec44b146106b2578063b88d4fde146106ce57610269565b806391eb40f51461057657806395d89b4114610592578063963159a7146105b0578063972d2de9146105ce57806398be2eec146105ea57610269565b80634f558e79116101ea57806366c527ed116101ae57806366c527ed146104a257806370a08231146104c05780637d24d3ea146104f05780637d6854a71461050e5780638b12ac361461052a5780638e9ecf651461055a57610269565b80634f558e79146103c6578063600a1670146103f65780636352211e1461042657806363f92e4e146104565780636641fb6a1461047257610269565b806323b872dd1161023157806323b872dd1461032657806331a68c721461034257806331d964c01461035e5780633899f93d1461037a57806342842e0e146103aa57610269565b806301ffc9a71461026e57806306fdde031461029e578063081812fc146102bc578063095ea7b3146102ec5780631fe5786b14610308575b600080fd5b61028860048036038101906102839190614284565b610860565b6040516102959190614f36565b60405180910390f35b6102a6610942565b6040516102b39190614f51565b60405180910390f35b6102d660048036038101906102d191906142d6565b6109d4565b6040516102e39190614d31565b60405180910390f35b6103066004803603810190610301919061421f565b610a59565b005b610310610b71565b60405161031d91906152d3565b60405180910390f35b610340600480360381019061033b91906140c5565b610b7b565b005b61035c60048036038101906103579190614060565b610bdb565b005b610378600480360381019061037391906142ff565b610c79565b005b610394600480360381019061038f91906142d6565b61128a565b6040516103a191906152d3565b60405180910390f35b6103c460048036038101906103bf91906140c5565b6112eb565b005b6103e060048036038101906103db91906142d6565b61130b565b6040516103ed9190614f36565b60405180910390f35b610410600480360381019061040b91906142d6565b61131d565b60405161041d91906152d3565b60405180910390f35b610440600480360381019061043b91906142d6565b61137e565b60405161044d9190614d31565b60405180910390f35b610470600480360381019061046b9190614060565b611430565b005b61048c600480360381019061048791906142d6565b6114ce565b60405161049991906152d3565b60405180910390f35b6104aa61152f565b6040516104b79190614d31565b60405180910390f35b6104da60048036038101906104d59190614060565b611559565b6040516104e791906152d3565b60405180910390f35b6104f8611611565b60405161050591906152d3565b60405180910390f35b610528600480360381019061052391906142d6565b61161b565b005b610544600480360381019061053f91906142d6565b61167f565b60405161055191906152d3565b60405180910390f35b610574600480360381019061056f91906142d6565b6116e0565b005b610590600480360381019061058b91906142ff565b611744565b005b61059a611a23565b6040516105a79190614f51565b60405180910390f35b6105b8611ab5565b6040516105c591906152d3565b60405180910390f35b6105e860048036038101906105e391906142d6565b611abf565b005b61060460048036038101906105ff91906142d6565b611b23565b60405161061191906152d3565b60405180910390f35b610634600480360381019061062f91906142d6565b611b84565b60405161064191906152d3565b60405180910390f35b610664600480360381019061065f91906142d6565b611be5565b005b610680600480360381019061067b919061418f565b6120b8565b005b61069c600480360381019061069791906142d6565b612239565b6040516106a991906152d3565b60405180910390f35b6106cc60048036038101906106c791906142d6565b61229a565b005b6106e860048036038101906106e39190614114565b6126be565b005b6106f2612720565b6040516106ff9190614d31565b60405180910390f35b61071061274a565b60405161071d9190614d31565b60405180910390f35b610740600480360381019061073b91906142d6565b612774565b60405161074d9190614f51565b60405180910390f35b610770600480360381019061076b91906142d6565b6128c6565b005b61078c60048036038101906107879190614060565b612cea565b005b6107a860048036038101906107a391906141cb565b612d88565b6040516107b591906152d3565b60405180910390f35b6107d860048036038101906107d39190614353565b612f2c565b005b6107e2612f8c565b6040516107ef91906152d3565b60405180910390f35b610812600480360381019061080d91906142d6565b612f96565b005b61082e600480360381019061082991906142d6565b612ffa565b005b61084a60048036038101906108459190614089565b61305e565b6040516108579190614f36565b60405180910390f35b60007f80ac58cd000000000000000000000000000000000000000000000000000000007bffffffffffffffffffffffffffffffffffffffffffffffffffffffff1916827bffffffffffffffffffffffffffffffffffffffffffffffffffffffff1916148061092b57507f5b5e139f000000000000000000000000000000000000000000000000000000007bffffffffffffffffffffffffffffffffffffffffffffffffffffffff1916827bffffffffffffffffffffffffffffffffffffffffffffffffffffffff1916145b8061093b575061093a826130f2565b5b9050919050565b6060600080546109519061558d565b80601f016020809104026020016040519081016040528092919081815260200182805461097d9061558d565b80156109ca5780601f1061099f576101008083540402835291602001916109ca565b820191906000526020600020905b8154815290600101906020018083116109ad57829003601f168201915b5050505050905090565b60006109df8261315c565b610a1e576040517f08c379a0000000000000000000000000000000000000000000000000000000008152600401610a15906151b3565b60405180910390fd5b6004600083815260200190815260200160002060009054906101000a900473ffffffffffffffffffffffffffffffffffffffff169050919050565b6000610a648261137e565b90508073ffffffffffffffffffffffffffffffffffffffff168373ffffffffffffffffffffffffffffffffffffffff161415610ad5576040517f08c379a0000000000000000000000000000000000000000000000000000000008152600401610acc90615213565b60405180910390fd5b8073ffffffffffffffffffffffffffffffffffffffff16610af46131c8565b73ffffffffffffffffffffffffffffffffffffffff161480610b235750610b2281610b1d6131c8565b61305e565b5b610b62576040517f08c379a0000000000000000000000000000000000000000000000000000000008152600401610b5990615093565b60405180910390fd5b610b6c83836131d0565b505050565b6000600c54905090565b610b8c610b866131c8565b82613289565b610bcb576040517f08c379a0000000000000000000000000000000000000000000000000000000008152600401610bc290615233565b60405180910390fd5b610bd6838383613367565b505050565b600960009054906101000a900473ffffffffffffffffffffffffffffffffffffffff1673ffffffffffffffffffffffffffffffffffffffff163373ffffffffffffffffffffffffffffffffffffffff1614610c3557600080fd5b80600960006101000a81548173ffffffffffffffffffffffffffffffffffffffff021916908373ffffffffffffffffffffffffffffffffffffffff16021790555050565b600960009054906101000a900473ffffffffffffffffffffffffffffffffffffffff1673ffffffffffffffffffffffffffffffffffffffff163373ffffffffffffffffffffffffffffffffffffffff1614610cd357600080fd5b610ce96002600e546135c390919063ffffffff16565b42610cf491906154a3565b6008600184610d0391906154a3565b81548110610d3a577f4e487b7100000000000000000000000000000000000000000000000000000000600052603260045260246000fd5b9060005260206000209060070201600001541115610d8d576040517f08c379a0000000000000000000000000000000000000000000000000000000008152600401610d8490615133565b60405180910390fd5b6000610e0d6064610dff605f6008600188610da891906154a3565b81548110610ddf577f4e487b7100000000000000000000000000000000000000000000000000000000600052603260045260246000fd5b9060005260206000209060070201600201546135c390919063ffffffff16565b6135d990919063ffffffff16565b90506000610e8f6064610e81605f6008600189610e2a91906154a3565b81548110610e61577f4e487b7100000000000000000000000000000000000000000000000000000000600052603260045260246000fd5b9060005260206000209060070201600501546135c390919063ffffffff16565b6135d990919063ffffffff16565b9050600a60009054906101000a900473ffffffffffffffffffffffffffffffffffffffff1673ffffffffffffffffffffffffffffffffffffffff1663a9059cbb600960009054906101000a900473ffffffffffffffffffffffffffffffffffffffff16846040518363ffffffff1660e01b8152600401610f10929190614dcf565b602060405180830381600087803b158015610f2a57600080fd5b505af1158015610f3e573d6000803e3d6000fd5b505050506040513d601f19601f82011682018060405250810190610f62919061425b565b610fa1576040517f08c379a0000000000000000000000000000000000000000000000000000000008152600401610f9890615253565b60405180910390fd5b600b60009054906101000a900473ffffffffffffffffffffffffffffffffffffffff1673ffffffffffffffffffffffffffffffffffffffff1663a9059cbb600960009054906101000a900473ffffffffffffffffffffffffffffffffffffffff16836040518363ffffffff1660e01b8152600401611020929190614dcf565b602060405180830381600087803b15801561103a57600080fd5b505af115801561104e573d6000803e3d6000fd5b505050506040513d601f19601f82011682018060405250810190611072919061425b565b6110b1576040517f08c379a00000000000000000000000000000000000000000000000000000000081526004016110a890615153565b60405180910390fd5b6110bb84846135ef565b600060086001866110cc91906154a3565b81548110611103577f4e487b7100000000000000000000000000000000000000000000000000000000600052603260045260246000fd5b9060005260206000209060070201600101819055506000600860018661112991906154a3565b81548110611160577f4e487b7100000000000000000000000000000000000000000000000000000000600052603260045260246000fd5b9060005260206000209060070201600401819055507f89820a3efd8918771ccc19ddc9173f5b6fababd9de92f01f4ac029babe68f3ae600960009054906101000a900473ffffffffffffffffffffffffffffffffffffffff16858560086001896111ca91906154a3565b81548110611201577f4e487b7100000000000000000000000000000000000000000000000000000000600052603260045260246000fd5b906000526020600020906007020160040154600860018a61122291906154a3565b81548110611259577f4e487b7100000000000000000000000000000000000000000000000000000000600052603260045260246000fd5b90600052602060002090600702016001015460405161127c959493929190614e44565b60405180910390a150505050565b6000600860018361129b91906154a3565b815481106112d2577f4e487b7100000000000000000000000000000000000000000000000000000000600052603260045260246000fd5b9060005260206000209060070201600401549050919050565b611306838383604051806020016040528060008152506126be565b505050565b60006113168261315c565b9050919050565b6000600860018361132e91906154a3565b81548110611365577f4e487b7100000000000000000000000000000000000000000000000000000000600052603260045260246000fd5b9060005260206000209060070201600001549050919050565b6000806002600084815260200190815260200160002060009054906101000a900473ffffffffffffffffffffffffffffffffffffffff169050600073ffffffffffffffffffffffffffffffffffffffff168173ffffffffffffffffffffffffffffffffffffffff161415611427576040517f08c379a000000000000000000000000000000000000000000000000000000000815260040161141e906150d3565b60405180910390fd5b80915050919050565b600960009054906101000a900473ffffffffffffffffffffffffffffffffffffffff1673ffffffffffffffffffffffffffffffffffffffff163373ffffffffffffffffffffffffffffffffffffffff161461148a57600080fd5b80600b60006101000a81548173ffffffffffffffffffffffffffffffffffffffff021916908373ffffffffffffffffffffffffffffffffffffffff16021790555050565b600060086001836114df91906154a3565b81548110611516577f4e487b7100000000000000000000000000000000000000000000000000000000600052603260045260246000fd5b9060005260206000209060070201600101549050919050565b6000600960009054906101000a900473ffffffffffffffffffffffffffffffffffffffff16905090565b60008073ffffffffffffffffffffffffffffffffffffffff168273ffffffffffffffffffffffffffffffffffffffff1614156115ca576040517f08c379a00000000000000000000000000000000000000000000000000000000081526004016115c1906150b3565b60405180910390fd5b600360008373ffffffffffffffffffffffffffffffffffffffff1673ffffffffffffffffffffffffffffffffffffffff168152602001908152602001600020549050919050565b6000600e54905090565b600960009054906101000a900473ffffffffffffffffffffffffffffffffffffffff1673ffffffffffffffffffffffffffffffffffffffff163373ffffffffffffffffffffffffffffffffffffffff161461167557600080fd5b80600f8190555050565b6000600860018361169091906154a3565b815481106116c7577f4e487b7100000000000000000000000000000000000000000000000000000000600052603260045260246000fd5b9060005260206000209060070201600301549050919050565b600960009054906101000a900473ffffffffffffffffffffffffffffffffffffffff1673ffffffffffffffffffffffffffffffffffffffff163373ffffffffffffffffffffffffffffffffffffffff161461173a57600080fd5b80600d8190555050565b600960009054906101000a900473ffffffffffffffffffffffffffffffffffffffff1673ffffffffffffffffffffffffffffffffffffffff163373ffffffffffffffffffffffffffffffffffffffff161461179e57600080fd5b60105460086001846117b091906154a3565b815481106117e7577f4e487b7100000000000000000000000000000000000000000000000000000000600052603260045260246000fd5b906000526020600020906007020160010154101561183a576040517f08c379a000000000000000000000000000000000000000000000000000000000815260040161183190614ff3565b60405180910390fd5b61184482826135ef565b6001600860018461185591906154a3565b8154811061188c577f4e487b7100000000000000000000000000000000000000000000000000000000600052603260045260246000fd5b906000526020600020906007020160060160008282546118ac91906153c2565b92505081905550600060086001846118c491906154a3565b815481106118fb577f4e487b7100000000000000000000000000000000000000000000000000000000600052603260045260246000fd5b9060005260206000209060070201600101819055507f767cc4f21e93cf9221ae138a119fc4f7d67aef68ca3e949a2028c59918ed47d1600960009054906101000a900473ffffffffffffffffffffffffffffffffffffffff168383600860018761196591906154a3565b8154811061199c577f4e487b7100000000000000000000000000000000000000000000000000000000600052603260045260246000fd5b90600052602060002090600702016006015460086001886119bd91906154a3565b815481106119f4577f4e487b7100000000000000000000000000000000000000000000000000000000600052603260045260246000fd5b906000526020600020906007020160010154604051611a17959493929190614e44565b60405180910390a15050565b606060018054611a329061558d565b80601f0160208091040260200160405190810160405280929190818152602001828054611a5e9061558d565b8015611aab5780601f10611a8057610100808354040283529160200191611aab565b820191906000526020600020905b815481529060010190602001808311611a8e57829003601f168201915b5050505050905090565b6000600d54905090565b600960009054906101000a900473ffffffffffffffffffffffffffffffffffffffff1673ffffffffffffffffffffffffffffffffffffffff163373ffffffffffffffffffffffffffffffffffffffff1614611b1957600080fd5b80600e8190555050565b60006008600183611b3491906154a3565b81548110611b6b577f4e487b7100000000000000000000000000000000000000000000000000000000600052603260045260246000fd5b9060005260206000209060070201600201549050919050565b60006008600183611b9591906154a3565b81548110611bcc577f4e487b7100000000000000000000000000000000000000000000000000000000600052603260045260246000fd5b9060005260206000209060070201600601549050919050565b3373ffffffffffffffffffffffffffffffffffffffff16611c058261137e565b73ffffffffffffffffffffffffffffffffffffffff1614611c5b576040517f08c379a0000000000000000000000000000000000000000000000000000000008152600401611c52906150f3565b60405180910390fd5b600a60009054906101000a900473ffffffffffffffffffffffffffffffffffffffff1673ffffffffffffffffffffffffffffffffffffffff1663a9059cbb336008600185611ca991906154a3565b81548110611ce0577f4e487b7100000000000000000000000000000000000000000000000000000000600052603260045260246000fd5b9060005260206000209060070201600201546040518363ffffffff1660e01b8152600401611d0f929190614dcf565b602060405180830381600087803b158015611d2957600080fd5b505af1158015611d3d573d6000803e3d6000fd5b505050506040513d601f19601f82011682018060405250810190611d61919061425b565b611da0576040517f08c379a0000000000000000000000000000000000000000000000000000000008152600401611d9790614f73565b60405180910390fd5b600b60009054906101000a900473ffffffffffffffffffffffffffffffffffffffff1673ffffffffffffffffffffffffffffffffffffffff1663a9059cbb336008600185611dee91906154a3565b81548110611e25577f4e487b7100000000000000000000000000000000000000000000000000000000600052603260045260246000fd5b9060005260206000209060070201600501546040518363ffffffff1660e01b8152600401611e54929190614dcf565b602060405180830381600087803b158015611e6e57600080fd5b505af1158015611e82573d6000803e3d6000fd5b505050506040513d601f19601f82011682018060405250810190611ea6919061425b565b611ee5576040517f08c379a0000000000000000000000000000000000000000000000000000000008152600401611edc90615073565b60405180910390fd5b60006008600183611ef691906154a3565b81548110611f2d577f4e487b7100000000000000000000000000000000000000000000000000000000600052603260045260246000fd5b90600052602060002090600702016002018190555060006008600183611f5391906154a3565b81548110611f8a577f4e487b7100000000000000000000000000000000000000000000000000000000600052603260045260246000fd5b906000526020600020906007020160050181905550611fa881613663565b7fb360df4590a25f368468650b174f08a5cc298cd5511dec7f59e35cf4538a4a4e600960009054906101000a900473ffffffffffffffffffffffffffffffffffffffff16826008600185611ffc91906154a3565b81548110612033577f4e487b7100000000000000000000000000000000000000000000000000000000600052603260045260246000fd5b906000526020600020906007020160020154600860018661205491906154a3565b8154811061208b577f4e487b7100000000000000000000000000000000000000000000000000000000600052603260045260246000fd5b9060005260206000209060070201600501546040516120ad9493929190614e9e565b60405180910390a150565b6120c06131c8565b73ffffffffffffffffffffffffffffffffffffffff168273ffffffffffffffffffffffffffffffffffffffff16141561212e576040517f08c379a000000000000000000000000000000000000000000000000000000000815260040161212590615033565b60405180910390fd5b806005600061213b6131c8565b73ffffffffffffffffffffffffffffffffffffffff1673ffffffffffffffffffffffffffffffffffffffff16815260200190815260200160002060008473ffffffffffffffffffffffffffffffffffffffff1673ffffffffffffffffffffffffffffffffffffffff16815260200190815260200160002060006101000a81548160ff0219169083151502179055508173ffffffffffffffffffffffffffffffffffffffff166121e86131c8565b73ffffffffffffffffffffffffffffffffffffffff167f17307eab39ab6107e8899845ad3d59bd9653f200f220920489ca2b5937696c318360405161222d9190614f36565b60405180910390a35050565b6000600860018361224a91906154a3565b81548110612281577f4e487b7100000000000000000000000000000000000000000000000000000000600052603260045260246000fd5b9060005260206000209060070201600501549050919050565b600e54426122a891906154a3565b60086001836122b791906154a3565b815481106122ee577f4e487b7100000000000000000000000000000000000000000000000000000000600052603260045260246000fd5b90600052602060002090600702016000015410612340576040517f08c379a000000000000000000000000000000000000000000000000000000000815260040161233790614f93565b60405180910390fd5b600a60009054906101000a900473ffffffffffffffffffffffffffffffffffffffff1673ffffffffffffffffffffffffffffffffffffffff166323b872dd3330612388610b71565b6040518463ffffffff1660e01b81526004016123a693929190614d4c565b602060405180830381600087803b1580156123c057600080fd5b505af11580156123d4573d6000803e3d6000fd5b505050506040513d601f19601f820116820180604052508101906123f8919061425b565b612437576040517f08c379a000000000000000000000000000000000000000000000000000000000815260040161242e90615273565b60405180910390fd5b42600860018361244791906154a3565b8154811061247e577f4e487b7100000000000000000000000000000000000000000000000000000000600052603260045260246000fd5b906000526020600020906007020160000181905550600160086001836124a491906154a3565b815481106124db577f4e487b7100000000000000000000000000000000000000000000000000000000600052603260045260246000fd5b906000526020600020906007020160010160008282546124fb91906153c2565b9250508190555061250a610b71565b600860018361251991906154a3565b81548110612550577f4e487b7100000000000000000000000000000000000000000000000000000000600052603260045260246000fd5b9060005260206000209060070201600201600082825461257091906153c2565b925050819055507f27ff10ac0ab28e4e21eb3357a32b20ca8b5a4e1fa8560e778e18c467411c3715338260086001856125a991906154a3565b815481106125e0577f4e487b7100000000000000000000000000000000000000000000000000000000600052603260045260246000fd5b906000526020600020906007020160000154600860018661260191906154a3565b81548110612638577f4e487b7100000000000000000000000000000000000000000000000000000000600052603260045260246000fd5b906000526020600020906007020160010154600860018761265991906154a3565b81548110612690577f4e487b7100000000000000000000000000000000000000000000000000000000600052603260045260246000fd5b9060005260206000209060070201600201546040516126b3959493929190614ee3565b60405180910390a150565b6126cf6126c96131c8565b83613289565b61270e576040517f08c379a000000000000000000000000000000000000000000000000000000000815260040161270590615233565b60405180910390fd5b61271a848484846136b6565b50505050565b6000600a60009054906101000a900473ffffffffffffffffffffffffffffffffffffffff16905090565b6000600b60009054906101000a900473ffffffffffffffffffffffffffffffffffffffff16905090565b606061277f8261315c565b6127be576040517f08c379a00000000000000000000000000000000000000000000000000000000081526004016127b590615193565b60405180910390fd5b60006006600084815260200190815260200160002080546127de9061558d565b80601f016020809104026020016040519081016040528092919081815260200182805461280a9061558d565b80156128575780601f1061282c57610100808354040283529160200191612857565b820191906000526020600020905b81548152906001019060200180831161283a57829003601f168201915b505050505090506000612868613712565b905060008151141561287e5781925050506128c1565b6000825111156128b357808260405160200161289b929190614d0d565b604051602081830303815290604052925050506128c1565b6128bc84613729565b925050505b919050565b600f54426128d491906154a3565b60086001836128e391906154a3565b8154811061291a577f4e487b7100000000000000000000000000000000000000000000000000000000600052603260045260246000fd5b9060005260206000209060070201600301541061296c576040517f08c379a000000000000000000000000000000000000000000000000000000000815260040161296390615293565b60405180910390fd5b600b60009054906101000a900473ffffffffffffffffffffffffffffffffffffffff1673ffffffffffffffffffffffffffffffffffffffff166323b872dd33306129b4611ab5565b6040518463ffffffff1660e01b81526004016129d293929190614d4c565b602060405180830381600087803b1580156129ec57600080fd5b505af1158015612a00573d6000803e3d6000fd5b505050506040513d601f19601f82011682018060405250810190612a24919061425b565b612a63576040517f08c379a0000000000000000000000000000000000000000000000000000000008152600401612a5a906152b3565b60405180910390fd5b426008600183612a7391906154a3565b81548110612aaa577f4e487b7100000000000000000000000000000000000000000000000000000000600052603260045260246000fd5b90600052602060002090600702016003018190555060016008600183612ad091906154a3565b81548110612b07577f4e487b7100000000000000000000000000000000000000000000000000000000600052603260045260246000fd5b90600052602060002090600702016004016000828254612b2791906153c2565b92505081905550612b36611ab5565b6008600183612b4591906154a3565b81548110612b7c577f4e487b7100000000000000000000000000000000000000000000000000000000600052603260045260246000fd5b90600052602060002090600702016005016000828254612b9c91906153c2565b925050819055507f7b654f8b2619f7890e7bb83de4588d9fec08bc448ca274b01e1a452423c3d61833826008600185612bd591906154a3565b81548110612c0c577f4e487b7100000000000000000000000000000000000000000000000000000000600052603260045260246000fd5b9060005260206000209060070201600301546008600186612c2d91906154a3565b81548110612c64577f4e487b7100000000000000000000000000000000000000000000000000000000600052603260045260246000fd5b9060005260206000209060070201600401546008600187612c8591906154a3565b81548110612cbc577f4e487b7100000000000000000000000000000000000000000000000000000000600052603260045260246000fd5b906000526020600020906007020160050154604051612cdf959493929190614ee3565b60405180910390a150565b600960009054906101000a900473ffffffffffffffffffffffffffffffffffffffff1673ffffffffffffffffffffffffffffffffffffffff163373ffffffffffffffffffffffffffffffffffffffff1614612d4457600080fd5b80600a60006101000a81548173ffffffffffffffffffffffffffffffffffffffff021916908373ffffffffffffffffffffffffffffffffffffffff16021790555050565b6000600960009054906101000a900473ffffffffffffffffffffffffffffffffffffffff1673ffffffffffffffffffffffffffffffffffffffff163373ffffffffffffffffffffffffffffffffffffffff1614612de457600080fd5b612dee60076137d0565b6000612dfa60076137e6565b905060006040518060e0016040528060008152602001600081526020016000815260200160008152602001600081526020016000815260200160008152509050612e4485836137f4565b612e4e82856135ef565b6008819080600181540180825580915050600190039060005260206000209060070201600090919091909150600082015181600001556020820151816001015560408201518160020155606082015181600301556080820151816004015560a0820151816005015560c0820151816006015550507ff8b01b8482f037f8b7a151b71fc125987970a44c9cf05615e04002a4c4ff6f1f858386600960009054906101000a900473ffffffffffffffffffffffffffffffffffffffff16604051612f199493929190614df8565b60405180910390a1819250505092915050565b806008600184612f3c91906154a3565b81548110612f73577f4e487b7100000000000000000000000000000000000000000000000000000000600052603260045260246000fd5b9060005260206000209060070201600601819055505050565b6000600f54905090565b600960009054906101000a900473ffffffffffffffffffffffffffffffffffffffff1673ffffffffffffffffffffffffffffffffffffffff163373ffffffffffffffffffffffffffffffffffffffff1614612ff057600080fd5b80600c8190555050565b600960009054906101000a900473ffffffffffffffffffffffffffffffffffffffff1673ffffffffffffffffffffffffffffffffffffffff163373ffffffffffffffffffffffffffffffffffffffff161461305457600080fd5b8060108190555050565b6000600560008473ffffffffffffffffffffffffffffffffffffffff1673ffffffffffffffffffffffffffffffffffffffff16815260200190815260200160002060008373ffffffffffffffffffffffffffffffffffffffff1673ffffffffffffffffffffffffffffffffffffffff16815260200190815260200160002060009054906101000a900460ff16905092915050565b60007f01ffc9a7000000000000000000000000000000000000000000000000000000007bffffffffffffffffffffffffffffffffffffffffffffffffffffffff1916827bffffffffffffffffffffffffffffffffffffffffffffffffffffffff1916149050919050565b60008073ffffffffffffffffffffffffffffffffffffffff166002600084815260200190815260200160002060009054906101000a900473ffffffffffffffffffffffffffffffffffffffff1673ffffffffffffffffffffffffffffffffffffffff1614159050919050565b600033905090565b816004600083815260200190815260200160002060006101000a81548173ffffffffffffffffffffffffffffffffffffffff021916908373ffffffffffffffffffffffffffffffffffffffff160217905550808273ffffffffffffffffffffffffffffffffffffffff166132438361137e565b73ffffffffffffffffffffffffffffffffffffffff167f8c5be1e5ebec7d5bd14f71427d1e84f3dd0314c0f7b2291e5b200ac8c7c3b92560405160405180910390a45050565b60006132948261315c565b6132d3576040517f08c379a00000000000000000000000000000000000000000000000000000000081526004016132ca90615053565b60405180910390fd5b60006132de8361137e565b90508073ffffffffffffffffffffffffffffffffffffffff168473ffffffffffffffffffffffffffffffffffffffff16148061334d57508373ffffffffffffffffffffffffffffffffffffffff16613335846109d4565b73ffffffffffffffffffffffffffffffffffffffff16145b8061335e575061335d818561305e565b5b91505092915050565b8273ffffffffffffffffffffffffffffffffffffffff166133878261137e565b73ffffffffffffffffffffffffffffffffffffffff16146133dd576040517f08c379a00000000000000000000000000000000000000000000000000000000081526004016133d4906151d3565b60405180910390fd5b600073ffffffffffffffffffffffffffffffffffffffff168273ffffffffffffffffffffffffffffffffffffffff16141561344d576040517f08c379a000000000000000000000000000000000000000000000000000000000815260040161344490615013565b60405180910390fd5b6134588383836139c2565b6134636000826131d0565b6001600360008573ffffffffffffffffffffffffffffffffffffffff1673ffffffffffffffffffffffffffffffffffffffff16815260200190815260200160002060008282546134b391906154a3565b925050819055506001600360008473ffffffffffffffffffffffffffffffffffffffff1673ffffffffffffffffffffffffffffffffffffffff168152602001908152602001600020600082825461350a91906153c2565b92505081905550816002600083815260200190815260200160002060006101000a81548173ffffffffffffffffffffffffffffffffffffffff021916908373ffffffffffffffffffffffffffffffffffffffff160217905550808273ffffffffffffffffffffffffffffffffffffffff168473ffffffffffffffffffffffffffffffffffffffff167fddf252ad1be2c89b69c2b068fc378daa952ba7f163c4a11628f55a4df523b3ef60405160405180910390a4505050565b600081836135d19190615449565b905092915050565b600081836135e79190615418565b905092915050565b6135f88261315c565b613637576040517f08c379a000000000000000000000000000000000000000000000000000000000815260040161362e90615113565b60405180910390fd5b8060066000848152602001908152602001600020908051906020019061365e929190613e2f565b505050565b61366c816139c7565b600060066000838152602001908152602001600020805461368c9061558d565b9050146136b3576006600082815260200190815260200160002060006136b29190613eb5565b5b50565b6136c1848484613367565b6136cd84848484613ad8565b61370c576040517f08c379a000000000000000000000000000000000000000000000000000000000815260040161370390614fb3565b60405180910390fd5b50505050565b606060405180602001604052806000815250905090565b60606137348261315c565b613773576040517f08c379a000000000000000000000000000000000000000000000000000000000815260040161376a906151f3565b60405180910390fd5b600061377d613712565b9050600081511161379d57604051806020016040528060008152506137c8565b806137a784613c6f565b6040516020016137b8929190614d0d565b6040516020818303038152906040525b915050919050565b6001816000016000828254019250508190555050565b600081600001549050919050565b600073ffffffffffffffffffffffffffffffffffffffff168273ffffffffffffffffffffffffffffffffffffffff161415613864576040517f08c379a000000000000000000000000000000000000000000000000000000000815260040161385b90615173565b60405180910390fd5b61386d8161315c565b156138ad576040517f08c379a00000000000000000000000000000000000000000000000000000000081526004016138a490614fd3565b60405180910390fd5b6138b9600083836139c2565b6001600360008473ffffffffffffffffffffffffffffffffffffffff1673ffffffffffffffffffffffffffffffffffffffff168152602001908152602001600020600082825461390991906153c2565b92505081905550816002600083815260200190815260200160002060006101000a81548173ffffffffffffffffffffffffffffffffffffffff021916908373ffffffffffffffffffffffffffffffffffffffff160217905550808273ffffffffffffffffffffffffffffffffffffffff16600073ffffffffffffffffffffffffffffffffffffffff167fddf252ad1be2c89b69c2b068fc378daa952ba7f163c4a11628f55a4df523b3ef60405160405180910390a45050565b505050565b60006139d28261137e565b90506139e0816000846139c2565b6139eb6000836131d0565b6001600360008373ffffffffffffffffffffffffffffffffffffffff1673ffffffffffffffffffffffffffffffffffffffff1681526020019081526020016000206000828254613a3b91906154a3565b925050819055506002600083815260200190815260200160002060006101000a81549073ffffffffffffffffffffffffffffffffffffffff021916905581600073ffffffffffffffffffffffffffffffffffffffff168273ffffffffffffffffffffffffffffffffffffffff167fddf252ad1be2c89b69c2b068fc378daa952ba7f163c4a11628f55a4df523b3ef60405160405180910390a45050565b6000613af98473ffffffffffffffffffffffffffffffffffffffff16613e1c565b15613c62578373ffffffffffffffffffffffffffffffffffffffff1663150b7a02613b226131c8565b8786866040518563ffffffff1660e01b8152600401613b449493929190614d83565b602060405180830381600087803b158015613b5e57600080fd5b505af1925050508015613b8f57506040513d601f19601f82011682018060405250810190613b8c91906142ad565b60015b613c12573d8060008114613bbf576040519150601f19603f3d011682016040523d82523d6000602084013e613bc4565b606091505b50600081511415613c0a576040517f08c379a0000000000000000000000000000000000000000000000000000000008152600401613c0190614fb3565b60405180910390fd5b805181602001fd5b63150b7a0260e01b7bffffffffffffffffffffffffffffffffffffffffffffffffffffffff1916817bffffffffffffffffffffffffffffffffffffffffffffffffffffffff191614915050613c67565b600190505b949350505050565b60606000821415613cb7576040518060400160405280600181526020017f30000000000000000000000000000000000000000000000000000000000000008152509050613e17565b600082905060005b60008214613ce9578080613cd2906155bf565b915050600a82613ce29190615418565b9150613cbf565b60008167ffffffffffffffff811115613d2b577f4e487b7100000000000000000000000000000000000000000000000000000000600052604160045260246000fd5b6040519080825280601f01601f191660200182016040528015613d5d5781602001600182028036833780820191505090505b5090505b60008514613e1057600182613d7691906154a3565b9150600a85613d859190615608565b6030613d9191906153c2565b60f81b818381518110613dcd577f4e487b7100000000000000000000000000000000000000000000000000000000600052603260045260246000fd5b60200101907effffffffffffffffffffffffffffffffffffffffffffffffffffffffffffff1916908160001a905350600a85613e099190615418565b9450613d61565b8093505050505b919050565b600080823b905060008111915050919050565b828054613e3b9061558d565b90600052602060002090601f016020900481019282613e5d5760008555613ea4565b82601f10613e7657805160ff1916838001178555613ea4565b82800160010185558215613ea4579182015b82811115613ea3578251825591602001919060010190613e88565b5b509050613eb19190613ef5565b5090565b508054613ec19061558d565b6000825580601f10613ed35750613ef2565b601f016020900490600052602060002090810190613ef19190613ef5565b5b50565b5b80821115613f0e576000816000905550600101613ef6565b5090565b6000613f25613f208461531f565b6152ee565b905082815260208101848484011115613f3d57600080fd5b613f4884828561554b565b509392505050565b6000613f63613f5e8461534f565b6152ee565b905082815260208101848484011115613f7b57600080fd5b613f8684828561554b565b509392505050565b600081359050613f9d81615706565b92915050565b600081359050613fb28161571d565b92915050565b600081519050613fc78161571d565b92915050565b600081359050613fdc81615734565b92915050565b600081519050613ff181615734565b92915050565b600082601f83011261400857600080fd5b8135614018848260208601613f12565b91505092915050565b600082601f83011261403257600080fd5b8135614042848260208601613f50565b91505092915050565b60008135905061405a8161574b565b92915050565b60006020828403121561407257600080fd5b600061408084828501613f8e565b91505092915050565b6000806040838503121561409c57600080fd5b60006140aa85828601613f8e565b92505060206140bb85828601613f8e565b9150509250929050565b6000806000606084860312156140da57600080fd5b60006140e886828701613f8e565b93505060206140f986828701613f8e565b925050604061410a8682870161404b565b9150509250925092565b6000806000806080858703121561412a57600080fd5b600061413887828801613f8e565b945050602061414987828801613f8e565b935050604061415a8782880161404b565b925050606085013567ffffffffffffffff81111561417757600080fd5b61418387828801613ff7565b91505092959194509250565b600080604083850312156141a257600080fd5b60006141b085828601613f8e565b92505060206141c185828601613fa3565b9150509250929050565b600080604083850312156141de57600080fd5b60006141ec85828601613f8e565b925050602083013567ffffffffffffffff81111561420957600080fd5b61421585828601614021565b9150509250929050565b6000806040838503121561423257600080fd5b600061424085828601613f8e565b92505060206142518582860161404b565b9150509250929050565b60006020828403121561426d57600080fd5b600061427b84828501613fb8565b91505092915050565b60006020828403121561429657600080fd5b60006142a484828501613fcd565b91505092915050565b6000602082840312156142bf57600080fd5b60006142cd84828501613fe2565b91505092915050565b6000602082840312156142e857600080fd5b60006142f68482850161404b565b91505092915050565b6000806040838503121561431257600080fd5b60006143208582860161404b565b925050602083013567ffffffffffffffff81111561433d57600080fd5b61434985828601614021565b9150509250929050565b6000806040838503121561436657600080fd5b60006143748582860161404b565b92505060206143858582860161404b565b9150509250929050565b614398816154d7565b82525050565b6143a7816154e9565b82525050565b60006143b88261537f565b6143c28185615395565b93506143d281856020860161555a565b6143db816156f5565b840191505092915050565b60006143f18261538a565b6143fb81856153a6565b935061440b81856020860161555a565b614414816156f5565b840191505092915050565b600061442a8261538a565b61443481856153b7565b935061444481856020860161555a565b80840191505092915050565b600061445d600e836153a6565b91507f21776974686472617757617465720000000000000000000000000000000000006000830152602082019050919050565b600061449d600a836153a6565b91507f21776174657261626c65000000000000000000000000000000000000000000006000830152602082019050919050565b60006144dd6032836153a6565b91507f4552433732313a207472616e7366657220746f206e6f6e20455243373231526560008301527f63656976657220696d706c656d656e74657200000000000000000000000000006020830152604082019050919050565b6000614543601c836153a6565b91507f4552433732313a20746f6b656e20616c7265616479206d696e746564000000006000830152602082019050919050565b60006145836009836153a6565b91507f2167726f7761626c6500000000000000000000000000000000000000000000006000830152602082019050919050565b60006145c36024836153a6565b91507f4552433732313a207472616e7366657220746f20746865207a65726f2061646460008301527f72657373000000000000000000000000000000000000000000000000000000006020830152604082019050919050565b60006146296019836153a6565b91507f4552433732313a20617070726f766520746f2063616c6c6572000000000000006000830152602082019050919050565b6000614669602c836153a6565b91507f4552433732313a206f70657261746f7220717565727920666f72206e6f6e657860008301527f697374656e7420746f6b656e00000000000000000000000000000000000000006020830152604082019050919050565b60006146cf6012836153a6565b91507f217769746864726177466572746c697a657200000000000000000000000000006000830152602082019050919050565b600061470f6038836153a6565b91507f4552433732313a20617070726f76652063616c6c6572206973206e6f74206f7760008301527f6e6572206e6f7220617070726f76656420666f7220616c6c00000000000000006020830152604082019050919050565b6000614775602a836153a6565b91507f4552433732313a2062616c616e636520717565727920666f7220746865207a6560008301527f726f2061646472657373000000000000000000000000000000000000000000006020830152604082019050919050565b60006147db6029836153a6565b91507f4552433732313a206f776e657220717565727920666f72206e6f6e657869737460008301527f656e7420746f6b656e00000000000000000000000000000000000000000000006020830152604082019050919050565b6000614841600a836153a6565b91507f216361726574616b6572000000000000000000000000000000000000000000006000830152602082019050919050565b6000614881602e836153a6565b91507f45524337323155524953746f726167653a2055524920736574206f66206e6f6e60008301527f6578697374656e7420746f6b656e0000000000000000000000000000000000006020830152604082019050919050565b60006148e76009836153a6565b91507f2177696c7461626c6500000000000000000000000000000000000000000000006000830152602082019050919050565b6000614927600c836153a6565b91507f21736c61736865644665727400000000000000000000000000000000000000006000830152602082019050919050565b60006149676020836153a6565b91507f4552433732313a206d696e7420746f20746865207a65726f20616464726573736000830152602082019050919050565b60006149a76031836153a6565b91507f45524337323155524953746f726167653a2055524920717565727920666f722060008301527f6e6f6e6578697374656e7420746f6b656e0000000000000000000000000000006020830152604082019050919050565b6000614a0d602c836153a6565b91507f4552433732313a20617070726f76656420717565727920666f72206e6f6e657860008301527f697374656e7420746f6b656e00000000000000000000000000000000000000006020830152604082019050919050565b6000614a736029836153a6565b91507f4552433732313a207472616e73666572206f6620746f6b656e2074686174206960008301527f73206e6f74206f776e00000000000000000000000000000000000000000000006020830152604082019050919050565b6000614ad9602f836153a6565b91507f4552433732314d657461646174613a2055524920717565727920666f72206e6f60008301527f6e6578697374656e7420746f6b656e00000000000000000000000000000000006020830152604082019050919050565b6000614b3f6021836153a6565b91507f4552433732313a20617070726f76616c20746f2063757272656e74206f776e6560008301527f72000000000000000000000000000000000000000000000000000000000000006020830152604082019050919050565b6000614ba56031836153a6565b91507f4552433732313a207472616e736665722063616c6c6572206973206e6f74206f60008301527f776e6572206e6f7220617070726f7665640000000000000000000000000000006020830152604082019050919050565b6000614c0b600d836153a6565b91507f21736c61736865645761746572000000000000000000000000000000000000006000830152602082019050919050565b6000614c4b6008836153a6565b91507f21776174657265640000000000000000000000000000000000000000000000006000830152602082019050919050565b6000614c8b600d836153a6565b91507f2166657274616c697a61626c65000000000000000000000000000000000000006000830152602082019050919050565b6000614ccb600b836153a6565b91507f2166657274696c697a65640000000000000000000000000000000000000000006000830152602082019050919050565b614d0781615541565b82525050565b6000614d19828561441f565b9150614d25828461441f565b91508190509392505050565b6000602082019050614d46600083018461438f565b92915050565b6000606082019050614d61600083018661438f565b614d6e602083018561438f565b614d7b6040830184614cfe565b949350505050565b6000608082019050614d98600083018761438f565b614da5602083018661438f565b614db26040830185614cfe565b8181036060830152614dc481846143ad565b905095945050505050565b6000604082019050614de4600083018561438f565b614df16020830184614cfe565b9392505050565b6000608082019050614e0d600083018761438f565b614e1a6020830186614cfe565b8181036040830152614e2c81856143e6565b9050614e3b606083018461438f565b95945050505050565b600060a082019050614e59600083018861438f565b614e666020830187614cfe565b8181036040830152614e7881866143e6565b9050614e876060830185614cfe565b614e946080830184614cfe565b9695505050505050565b6000608082019050614eb3600083018761438f565b614ec06020830186614cfe565b614ecd6040830185614cfe565b614eda6060830184614cfe565b95945050505050565b600060a082019050614ef8600083018861438f565b614f056020830187614cfe565b614f126040830186614cfe565b614f1f6060830185614cfe565b614f2c6080830184614cfe565b9695505050505050565b6000602082019050614f4b600083018461439e565b92915050565b60006020820190508181036000830152614f6b81846143e6565b905092915050565b60006020820190508181036000830152614f8c81614450565b9050919050565b60006020820190508181036000830152614fac81614490565b9050919050565b60006020820190508181036000830152614fcc816144d0565b9050919050565b60006020820190508181036000830152614fec81614536565b9050919050565b6000602082019050818103600083015261500c81614576565b9050919050565b6000602082019050818103600083015261502c816145b6565b9050919050565b6000602082019050818103600083015261504c8161461c565b9050919050565b6000602082019050818103600083015261506c8161465c565b9050919050565b6000602082019050818103600083015261508c816146c2565b9050919050565b600060208201905081810360008301526150ac81614702565b9050919050565b600060208201905081810360008301526150cc81614768565b9050919050565b600060208201905081810360008301526150ec816147ce565b9050919050565b6000602082019050818103600083015261510c81614834565b9050919050565b6000602082019050818103600083015261512c81614874565b9050919050565b6000602082019050818103600083015261514c816148da565b9050919050565b6000602082019050818103600083015261516c8161491a565b9050919050565b6000602082019050818103600083015261518c8161495a565b9050919050565b600060208201905081810360008301526151ac8161499a565b9050919050565b600060208201905081810360008301526151cc81614a00565b9050919050565b600060208201905081810360008301526151ec81614a66565b9050919050565b6000602082019050818103600083015261520c81614acc565b9050919050565b6000602082019050818103600083015261522c81614b32565b9050919050565b6000602082019050818103600083015261524c81614b98565b9050919050565b6000602082019050818103600083015261526c81614bfe565b9050919050565b6000602082019050818103600083015261528c81614c3e565b9050919050565b600060208201905081810360008301526152ac81614c7e565b9050919050565b600060208201905081810360008301526152cc81614cbe565b9050919050565b60006020820190506152e86000830184614cfe565b92915050565b6000604051905081810181811067ffffffffffffffff82111715615315576153146156c6565b5b8060405250919050565b600067ffffffffffffffff82111561533a576153396156c6565b5b601f19601f8301169050602081019050919050565b600067ffffffffffffffff82111561536a576153696156c6565b5b601f19601f8301169050602081019050919050565b600081519050919050565b600081519050919050565b600082825260208201905092915050565b600082825260208201905092915050565b600081905092915050565b60006153cd82615541565b91506153d883615541565b9250827fffffffffffffffffffffffffffffffffffffffffffffffffffffffffffffffff0382111561540d5761540c615639565b5b828201905092915050565b600061542382615541565b915061542e83615541565b92508261543e5761543d615668565b5b828204905092915050565b600061545482615541565b915061545f83615541565b9250817fffffffffffffffffffffffffffffffffffffffffffffffffffffffffffffffff048311821515161561549857615497615639565b5b828202905092915050565b60006154ae82615541565b91506154b983615541565b9250828210156154cc576154cb615639565b5b828203905092915050565b60006154e282615521565b9050919050565b60008115159050919050565b60007fffffffff0000000000000000000000000000000000000000000000000000000082169050919050565b600073ffffffffffffffffffffffffffffffffffffffff82169050919050565b6000819050919050565b82818337600083830152505050565b60005b8381101561557857808201518184015260208101905061555d565b83811115615587576000848401525b50505050565b600060028204905060018216806155a557607f821691505b602082108114156155b9576155b8615697565b5b50919050565b60006155ca82615541565b91507fffffffffffffffffffffffffffffffffffffffffffffffffffffffffffffffff8214156155fd576155fc615639565b5b600182019050919050565b600061561382615541565b915061561e83615541565b92508261562e5761562d615668565b5b828206905092915050565b7f4e487b7100000000000000000000000000000000000000000000000000000000600052601160045260246000fd5b7f4e487b7100000000000000000000000000000000000000000000000000000000600052601260045260246000fd5b7f4e487b7100000000000000000000000000000000000000000000000000000000600052602260045260246000fd5b7f4e487b7100000000000000000000000000000000000000000000000000000000600052604160045260246000fd5b6000601f19601f8301169050919050565b61570f816154d7565b811461571a57600080fd5b50565b615726816154e9565b811461573157600080fd5b50565b61573d816154f5565b811461574857600080fd5b50565b61575481615541565b811461575f57600080fd5b5056fea2646970667358221220fbd3fc7a3ddcf818eefbf68361f70fff7216b471e76e8a4af843a1d1886f177c64736f6c63430008000033",
  "immutableReferences": {},
  "source": "// contracts/GameItem.sol\n// SPDX-License-Identifier: MIT\npragma solidity ^0.8.0;\n\nimport \"@openzeppelin/contracts/token/ERC721/ERC721.sol\";\nimport \"@openzeppelin/contracts/token/ERC20/IERC20.sol\";\nimport \"@openzeppelin/contracts/token/ERC721/extensions/ERC721URIStorage.sol\";\nimport \"@openzeppelin/contracts/utils/Counters.sol\";\nimport \"@openzeppelin/contracts/utils/math/SafeMath.sol\";\n\ncontract BonsaiBank is ERC721URIStorage {\n    using SafeMath for uint256;\n    using Counters for Counters.Counter;\n    Counters.Counter private bonsaiIds;\n\n    struct Bonsai {\n      uint256 lastWatered;               // The last time the bonsai was watered\n      uint256 consecutiveWaterings;      // The number of waterings gone without missing a watering\n      uint256 waterBalance;              // The amount of water tokens deposited\n      uint256 lastFertilized;            // The last time the bonsai was fertilized\n      uint256 consecutiveFertilizings;   // The number of fertilizings without missing a fertilize\n      uint256 fertilizerBalance;         // The amount of fertilizer tokens deposited\n      uint256 lifeStage;                 // The amount of times this bonsai has been grown or wilted\n    }\n\n    Bonsai[] bonsaiBanks;                // All bonsai banks, indexible by bonsai/tokenId - 1\n\n    address botanist;                   // The owner of the contract, has control of the protocol\n    address waterToken;                 // The ERC20 token address to use for watering\n    address fertToken;                  // The ERC20 token address to use for fertilizing\n    uint256 waterAmount;                // The amount of waterTokens needed for watering\n    uint256 fertAmount;                 // The amount of fertTokens needed for fertilizing\n    uint256 waterRate;                  // The time delay between waterings in seconds\n    uint256 fertRate;                   // The time delay between fertilizing in seconds\n    uint256 wateringsToGrow;            // The number of consecutive waterings needed to grow\n\n\n    constructor(address _botanist) ERC721(\"Bonsai Bank\", \"BNZI\") {\n        botanist = _botanist;\n    }\n\n    modifier onlyBotanist {\n      require(msg.sender == botanist);\n      _;\n    }\n\n    // Getter Methods\n\n    function getBotanist() public view returns(address) {\n      return botanist;\n    }\n\n    function getWaterToken() public view returns(address) {\n      return waterToken;\n    }\n\n    function getFertToken() public view returns(address) {\n      return fertToken;\n    }\n\n    function getWaterAmount() public view returns(uint256) {\n      return waterAmount;\n    }\n\n    function getFertAmount() public view returns(uint256) {\n      return fertAmount;\n    }\n\n    function getWaterRate() public view returns(uint256) {\n      return waterRate;\n    }\n\n    function getFertRate() public view returns(uint256) {\n      return fertRate;\n    }\n\n    function lastWatered(uint256 bonsaiId) external view returns (uint256){\n      return bonsaiBanks[bonsaiId-1].lastWatered;\n    }\n\n    function consecutiveWaterings(uint256 bonsaiId) external view returns (uint256){\n      return bonsaiBanks[bonsaiId-1].consecutiveWaterings;\n    }\n\n    function waterBalance(uint256 bonsaiId) external view returns (uint256){\n      return bonsaiBanks[bonsaiId-1].waterBalance;\n    }\n\n    function lastFertilized(uint256 bonsaiId) external view returns (uint256){\n      return bonsaiBanks[bonsaiId-1].lastFertilized;\n    }\n\n    function consecutiveFertilizings(uint256 bonsaiId) external view returns (uint256){\n      return bonsaiBanks[bonsaiId-1].consecutiveFertilizings;\n    }\n\n    function fertilizerBalance(uint256 bonsaiId) external view returns (uint256){\n      return bonsaiBanks[bonsaiId-1].fertilizerBalance;\n    }\n\n    function lifeStage(uint256 bonsaiId) external view returns (uint256){\n      return bonsaiBanks[bonsaiId-1].lifeStage;\n    }\n\n    function exists(uint256 bonsaiId) external view returns (bool){\n      return _exists(bonsaiId);\n    }\n\n    // Setter Methods\n    function setBotanist(address _botanist) external onlyBotanist {\n      botanist = _botanist;\n    }\n\n    function setWaterToken(address _waterToken) external onlyBotanist {\n      waterToken = _waterToken;\n    }\n\n    function setFertToken(address _fertToken) external onlyBotanist {\n      fertToken = _fertToken;\n    }\n\n    function setWaterAmount(uint256 _waterAmount) external onlyBotanist {\n      waterAmount = _waterAmount;\n    }\n\n    function setFertAmount(uint256 _fertAmount) external onlyBotanist {\n      fertAmount = _fertAmount;\n    }\n\n    function setWaterRate(uint256 _waterRate) external onlyBotanist {\n      waterRate = _waterRate;\n    }\n\n    function setFertRate(uint256 _fertRate) external onlyBotanist {\n      fertRate = _fertRate;\n    }\n\n    function setWateringsToGrow(uint256 _wateringsToGrow) external onlyBotanist {\n      wateringsToGrow = _wateringsToGrow;\n    }\n\n    // Interal only setters for Bonsai Banks\n    function setLastWatered(uint256 bonsaiId, uint256 _lastWatered) internal {\n      bonsaiBanks[bonsaiId-1].lastWatered = _lastWatered;\n    }\n\n    function setConsecutiveWaterings(uint256 bonsaiId, uint256 _consecutiveWaterings) internal {\n      bonsaiBanks[bonsaiId-1].consecutiveWaterings = _consecutiveWaterings;\n    }\n\n    function setWaterBalance(uint256 bonsaiId, uint256 _waterBalance) internal {\n      bonsaiBanks[bonsaiId-1].waterBalance = _waterBalance;\n    }\n\n    function setLastFertilized(uint256 bonsaiId, uint256 _lastFertilized) internal {\n      bonsaiBanks[bonsaiId-1].lastFertilized = _lastFertilized;\n    }\n\n    function setConsecutiveFertilizings(uint256 bonsaiId, uint256 _consecutiveFertilizings) internal {\n      bonsaiBanks[bonsaiId-1].consecutiveFertilizings = _consecutiveFertilizings;\n    }\n\n    function setFertilizerBalance(uint256 bonsaiId, uint256 _fertilizerBalance) internal {\n      bonsaiBanks[bonsaiId-1].fertilizerBalance = _fertilizerBalance;\n    }\n\n    function setLifeStage(uint256 bonsaiId, uint256 _lifeStage) external {\n      bonsaiBanks[bonsaiId-1].lifeStage = _lifeStage;\n    }\n\n    // Events\n    event BonsaiCreated(address caretaker,uint256 _bonsaiId,string bonsaiURI,address botanist );\n    event BonsaiWatered(address waterer,uint256 _bonsaiId,uint256 lastWatered,uint256 consecutiveWaterings,uint256 waterBalance );\n    event BonsaiFertilized(address waterer,uint256 _bonsaiId,uint256 lastFertilized,uint256 consecutiveFertilizings,uint256 fertilizerBalance );\n    event BonsaiGrow(address botanist,uint256 _bonsaiID,string _bonsaiURI,uint256 lifeStage,uint256 consecutiveWaterings);\n    event BonsaiWilt(address botanist,uint256 _bonsaiID,string _bonsaiURI,uint256 consecutiveFertilizings,uint256 consecutiveWaterings);\n    event BonsaiDestroy(address botanist,uint256 _bonsaiID,uint256 waterBalance, uint256 fertilizerBalance);\n    // Core Bonsai Bank Functionality\n\n    // @dev Mints a new Bonsai Bank directly to the caretaker\n    function mint(address caretaker, string memory bonsaiURI) external onlyBotanist returns (uint256 bonsaiId)  {\n      bonsaiIds.increment();\n      uint256 _bonsaiId = bonsaiIds.current();\n      Bonsai memory bb = Bonsai(0,0,0,0,0,0,0);\n      _mint(caretaker, _bonsaiId);\n      _setTokenURI(_bonsaiId, bonsaiURI);\n      bonsaiBanks.push(bb);\n      emit BonsaiCreated(caretaker, _bonsaiId, bonsaiURI, botanist);\n      return _bonsaiId;\n    }\n\n    function water(uint256 _bonsaiId) external {\n      require(bonsaiBanks[_bonsaiId - 1].lastWatered < block.timestamp - waterRate, \"!waterable\");\n      require(IERC20(waterToken).transferFrom(msg.sender, address(this), getWaterAmount()), \"!watered\");\n      bonsaiBanks[_bonsaiId - 1].lastWatered = block.timestamp;\n      bonsaiBanks[_bonsaiId - 1].consecutiveWaterings += 1;\n      bonsaiBanks[_bonsaiId - 1].waterBalance += getWaterAmount();\n      emit BonsaiWatered(msg.sender, _bonsaiId, bonsaiBanks[_bonsaiId - 1].lastWatered, bonsaiBanks[_bonsaiId - 1].consecutiveWaterings, bonsaiBanks[_bonsaiId - 1].waterBalance);\n    }\n\n    function fertilize(uint256 _bonsaiId) external {\n      require(bonsaiBanks[_bonsaiId - 1].lastFertilized < block.timestamp - fertRate, \"!fertalizable\");\n      require(IERC20(fertToken).transferFrom(msg.sender, address(this), getFertAmount()), \"!fertilized\");\n      bonsaiBanks[_bonsaiId - 1].lastFertilized = block.timestamp;\n      bonsaiBanks[_bonsaiId - 1].consecutiveFertilizings += 1;\n      bonsaiBanks[_bonsaiId - 1].fertilizerBalance += getFertAmount();\n      emit BonsaiFertilized(msg.sender, _bonsaiId, bonsaiBanks[_bonsaiId - 1].lastFertilized, bonsaiBanks[_bonsaiId - 1].consecutiveFertilizings, bonsaiBanks[_bonsaiId - 1].fertilizerBalance);\n    }\n\n    function grow(uint256 _bonsaiId, string memory _bonsaiURI) external onlyBotanist {\n      require(bonsaiBanks[_bonsaiId - 1].consecutiveWaterings >= wateringsToGrow, \"!growable\");\n      _setTokenURI(_bonsaiId, _bonsaiURI);\n      bonsaiBanks[_bonsaiId - 1].lifeStage += 1;\n      bonsaiBanks[_bonsaiId - 1].consecutiveWaterings = 0;\n      emit BonsaiGrow(botanist, _bonsaiId, _bonsaiURI, bonsaiBanks[_bonsaiId - 1].lifeStage, bonsaiBanks[_bonsaiId - 1].consecutiveWaterings);\n    }\n\n    function wilt(uint256 _bonsaiId, string memory _bonsaiURI) external onlyBotanist {\n      require(bonsaiBanks[_bonsaiId - 1].lastWatered <= block.timestamp - waterRate.mul(2), \"!wiltable\");\n      uint256 waterSlashAmount = bonsaiBanks[_bonsaiId - 1].waterBalance.mul(95).div(100);     // TODO: Safe Math\n      uint256 fertSlashAmount = bonsaiBanks[_bonsaiId - 1].fertilizerBalance.mul(95).div(100); // TODO: Safe Math\n      require(IERC20(waterToken).transfer(botanist,  waterSlashAmount), \"!slashedWater\");\n      require(IERC20(fertToken).transfer(botanist, fertSlashAmount), \"!slashedFert\");\n      _setTokenURI(_bonsaiId, _bonsaiURI);\n      bonsaiBanks[_bonsaiId - 1].consecutiveWaterings = 0;\n      bonsaiBanks[_bonsaiId - 1].consecutiveFertilizings = 0;\n      emit BonsaiWilt(botanist, _bonsaiId, _bonsaiURI, bonsaiBanks[_bonsaiId - 1].consecutiveFertilizings, bonsaiBanks[_bonsaiId - 1].consecutiveWaterings);\n    }\n\n    function destroy(uint256 _bonsaiId) external {\n      require(ownerOf(_bonsaiId) == msg.sender, \"!caretaker\");\n      require(IERC20(waterToken).transfer(msg.sender,  bonsaiBanks[_bonsaiId - 1].waterBalance), \"!withdrawWater\");\n      require(IERC20(fertToken).transfer(msg.sender, bonsaiBanks[_bonsaiId - 1].fertilizerBalance), \"!withdrawFertlizer\");\n      bonsaiBanks[_bonsaiId - 1].waterBalance = 0;\n      bonsaiBanks[_bonsaiId - 1].fertilizerBalance = 0;\n      _burn(_bonsaiId);\n      emit BonsaiDestroy(botanist, _bonsaiId, bonsaiBanks[_bonsaiId - 1].waterBalance, bonsaiBanks[_bonsaiId - 1].fertilizerBalance);\n    }\n\n}\n",
  "sourcePath": "/Users/praffulsahu/Documents/Crypto/fellowship/bonsai-banks/02-Dapp/contracts/BonsaiBank.sol",
  "compiler": {
    "name": "solc",
    "version": "0.8.0+commit.c7dfd78e.Emscripten.clang"
  },
  "schemaVersion": "3.3.3",
  "updatedAt": "2021-07-13T12:12:53.502Z",
  "networkType": "ethereum",
  "devdoc": {
    "kind": "dev",
    "methods": {
      "approve(address,uint256)": {
        "details": "See {IERC721-approve}."
      },
      "balanceOf(address)": {
        "details": "See {IERC721-balanceOf}."
      },
      "getApproved(uint256)": {
        "details": "See {IERC721-getApproved}."
      },
      "isApprovedForAll(address,address)": {
        "details": "See {IERC721-isApprovedForAll}."
      },
      "name()": {
        "details": "See {IERC721Metadata-name}."
      },
      "ownerOf(uint256)": {
        "details": "See {IERC721-ownerOf}."
      },
      "safeTransferFrom(address,address,uint256)": {
        "details": "See {IERC721-safeTransferFrom}."
      },
      "safeTransferFrom(address,address,uint256,bytes)": {
        "details": "See {IERC721-safeTransferFrom}."
      },
      "setApprovalForAll(address,bool)": {
        "details": "See {IERC721-setApprovalForAll}."
      },
      "supportsInterface(bytes4)": {
        "details": "See {IERC165-supportsInterface}."
      },
      "symbol()": {
        "details": "See {IERC721Metadata-symbol}."
      },
      "tokenURI(uint256)": {
        "details": "See {IERC721Metadata-tokenURI}."
      },
      "transferFrom(address,address,uint256)": {
        "details": "See {IERC721-transferFrom}."
      }
    },
    "version": 1
  },
  "userdoc": {
    "kind": "user",
    "methods": {},
    "version": 1
  }
}